{
  "contractName": "BrainCoinV2",
  "abi": [
    {
      "inputs": [],
      "stateMutability": "nonpayable",
      "type": "constructor"
    },
    {
      "anonymous": false,
      "inputs": [
        {
          "indexed": false,
          "internalType": "address",
          "name": "previousAdmin",
          "type": "address"
        },
        {
          "indexed": false,
          "internalType": "address",
          "name": "newAdmin",
          "type": "address"
        }
      ],
      "name": "AdminChanged",
      "type": "event"
    },
    {
      "anonymous": false,
      "inputs": [
        {
          "indexed": true,
          "internalType": "address",
          "name": "owner",
          "type": "address"
        },
        {
          "indexed": true,
          "internalType": "address",
          "name": "spender",
          "type": "address"
        },
        {
          "indexed": false,
          "internalType": "uint256",
          "name": "value",
          "type": "uint256"
        }
      ],
      "name": "Approval",
      "type": "event"
    },
    {
      "anonymous": false,
      "inputs": [
        {
          "indexed": true,
          "internalType": "address",
          "name": "beacon",
          "type": "address"
        }
      ],
      "name": "BeaconUpgraded",
      "type": "event"
    },
    {
      "anonymous": false,
      "inputs": [
        {
          "indexed": true,
          "internalType": "address",
          "name": "delegator",
          "type": "address"
        },
        {
          "indexed": true,
          "internalType": "address",
          "name": "fromDelegate",
          "type": "address"
        },
        {
          "indexed": true,
          "internalType": "address",
          "name": "toDelegate",
          "type": "address"
        }
      ],
      "name": "DelegateChanged",
      "type": "event"
    },
    {
      "anonymous": false,
      "inputs": [
        {
          "indexed": true,
          "internalType": "address",
          "name": "delegate",
          "type": "address"
        },
        {
          "indexed": false,
          "internalType": "uint256",
          "name": "previousBalance",
          "type": "uint256"
        },
        {
          "indexed": false,
          "internalType": "uint256",
          "name": "newBalance",
          "type": "uint256"
        }
      ],
      "name": "DelegateVotesChanged",
      "type": "event"
    },
    {
      "anonymous": false,
      "inputs": [
        {
          "indexed": false,
          "internalType": "uint8",
          "name": "version",
          "type": "uint8"
        }
      ],
      "name": "Initialized",
      "type": "event"
    },
    {
      "anonymous": false,
      "inputs": [
        {
          "indexed": true,
          "internalType": "address",
          "name": "previousOwner",
          "type": "address"
        },
        {
          "indexed": true,
          "internalType": "address",
          "name": "newOwner",
          "type": "address"
        }
      ],
      "name": "OwnershipTransferred",
      "type": "event"
    },
    {
      "anonymous": false,
      "inputs": [
        {
          "indexed": false,
          "internalType": "address",
          "name": "account",
          "type": "address"
        }
      ],
      "name": "Paused",
      "type": "event"
    },
    {
      "anonymous": false,
      "inputs": [
        {
          "indexed": false,
          "internalType": "uint256",
          "name": "id",
          "type": "uint256"
        }
      ],
      "name": "Snapshot",
      "type": "event"
    },
    {
      "anonymous": false,
      "inputs": [
        {
          "indexed": true,
          "internalType": "address",
          "name": "from",
          "type": "address"
        },
        {
          "indexed": true,
          "internalType": "address",
          "name": "to",
          "type": "address"
        },
        {
          "indexed": false,
          "internalType": "uint256",
          "name": "value",
          "type": "uint256"
        }
      ],
      "name": "Transfer",
      "type": "event"
    },
    {
      "anonymous": false,
      "inputs": [
        {
          "indexed": false,
          "internalType": "address",
          "name": "account",
          "type": "address"
        }
      ],
      "name": "Unpaused",
      "type": "event"
    },
    {
      "anonymous": false,
      "inputs": [
        {
          "indexed": true,
          "internalType": "address",
          "name": "implementation",
          "type": "address"
        }
      ],
      "name": "Upgraded",
      "type": "event"
    },
    {
      "inputs": [],
      "name": "DOMAIN_SEPARATOR",
      "outputs": [
        {
          "internalType": "bytes32",
          "name": "",
          "type": "bytes32"
        }
      ],
      "stateMutability": "view",
      "type": "function",
      "constant": true
    },
    {
      "inputs": [
        {
          "internalType": "address",
          "name": "owner",
          "type": "address"
        },
        {
          "internalType": "address",
          "name": "spender",
          "type": "address"
        }
      ],
      "name": "allowance",
      "outputs": [
        {
          "internalType": "uint256",
          "name": "",
          "type": "uint256"
        }
      ],
      "stateMutability": "view",
      "type": "function",
      "constant": true
    },
    {
      "inputs": [
        {
          "internalType": "address",
          "name": "spender",
          "type": "address"
        },
        {
          "internalType": "uint256",
          "name": "amount",
          "type": "uint256"
        }
      ],
      "name": "approve",
      "outputs": [
        {
          "internalType": "bool",
          "name": "",
          "type": "bool"
        }
      ],
      "stateMutability": "nonpayable",
      "type": "function"
    },
    {
      "inputs": [
        {
          "internalType": "address",
          "name": "account",
          "type": "address"
        }
      ],
      "name": "balanceOf",
      "outputs": [
        {
          "internalType": "uint256",
          "name": "",
          "type": "uint256"
        }
      ],
      "stateMutability": "view",
      "type": "function",
      "constant": true
    },
    {
      "inputs": [
        {
          "internalType": "address",
          "name": "account",
          "type": "address"
        },
        {
          "internalType": "uint256",
          "name": "snapshotId",
          "type": "uint256"
        }
      ],
      "name": "balanceOfAt",
      "outputs": [
        {
          "internalType": "uint256",
          "name": "",
          "type": "uint256"
        }
      ],
      "stateMutability": "view",
      "type": "function",
      "constant": true
    },
    {
      "inputs": [
        {
          "internalType": "uint256",
          "name": "amount",
          "type": "uint256"
        }
      ],
      "name": "burn",
      "outputs": [],
      "stateMutability": "nonpayable",
      "type": "function"
    },
    {
      "inputs": [
        {
          "internalType": "address",
          "name": "account",
          "type": "address"
        },
        {
          "internalType": "uint256",
          "name": "amount",
          "type": "uint256"
        }
      ],
      "name": "burnFrom",
      "outputs": [],
      "stateMutability": "nonpayable",
      "type": "function"
    },
    {
      "inputs": [
        {
          "internalType": "address",
          "name": "account",
          "type": "address"
        },
        {
          "internalType": "uint32",
          "name": "pos",
          "type": "uint32"
        }
      ],
      "name": "checkpoints",
      "outputs": [
        {
          "components": [
            {
              "internalType": "uint32",
              "name": "fromBlock",
              "type": "uint32"
            },
            {
              "internalType": "uint224",
              "name": "votes",
              "type": "uint224"
            }
          ],
          "internalType": "struct ERC20VotesUpgradeable.Checkpoint",
          "name": "",
          "type": "tuple"
        }
      ],
      "stateMutability": "view",
      "type": "function",
      "constant": true
    },
    {
      "inputs": [],
      "name": "decimals",
      "outputs": [
        {
          "internalType": "uint8",
          "name": "",
          "type": "uint8"
        }
      ],
      "stateMutability": "view",
      "type": "function",
      "constant": true
    },
    {
      "inputs": [
        {
          "internalType": "address",
          "name": "spender",
          "type": "address"
        },
        {
          "internalType": "uint256",
          "name": "subtractedValue",
          "type": "uint256"
        }
      ],
      "name": "decreaseAllowance",
      "outputs": [
        {
          "internalType": "bool",
          "name": "",
          "type": "bool"
        }
      ],
      "stateMutability": "nonpayable",
      "type": "function"
    },
    {
      "inputs": [
        {
          "internalType": "address",
          "name": "delegatee",
          "type": "address"
        }
      ],
      "name": "delegate",
      "outputs": [],
      "stateMutability": "nonpayable",
      "type": "function"
    },
    {
      "inputs": [
        {
          "internalType": "address",
          "name": "delegatee",
          "type": "address"
        },
        {
          "internalType": "uint256",
          "name": "nonce",
          "type": "uint256"
        },
        {
          "internalType": "uint256",
          "name": "expiry",
          "type": "uint256"
        },
        {
          "internalType": "uint8",
          "name": "v",
          "type": "uint8"
        },
        {
          "internalType": "bytes32",
          "name": "r",
          "type": "bytes32"
        },
        {
          "internalType": "bytes32",
          "name": "s",
          "type": "bytes32"
        }
      ],
      "name": "delegateBySig",
      "outputs": [],
      "stateMutability": "nonpayable",
      "type": "function"
    },
    {
      "inputs": [
        {
          "internalType": "address",
          "name": "account",
          "type": "address"
        }
      ],
      "name": "delegates",
      "outputs": [
        {
          "internalType": "address",
          "name": "",
          "type": "address"
        }
      ],
      "stateMutability": "view",
      "type": "function",
      "constant": true
    },
    {
      "inputs": [
        {
          "internalType": "uint256",
          "name": "blockNumber",
          "type": "uint256"
        }
      ],
      "name": "getPastTotalSupply",
      "outputs": [
        {
          "internalType": "uint256",
          "name": "",
          "type": "uint256"
        }
      ],
      "stateMutability": "view",
      "type": "function",
      "constant": true
    },
    {
      "inputs": [
        {
          "internalType": "address",
          "name": "account",
          "type": "address"
        },
        {
          "internalType": "uint256",
          "name": "blockNumber",
          "type": "uint256"
        }
      ],
      "name": "getPastVotes",
      "outputs": [
        {
          "internalType": "uint256",
          "name": "",
          "type": "uint256"
        }
      ],
      "stateMutability": "view",
      "type": "function",
      "constant": true
    },
    {
      "inputs": [
        {
          "internalType": "address",
          "name": "account",
          "type": "address"
        }
      ],
      "name": "getVotes",
      "outputs": [
        {
          "internalType": "uint256",
          "name": "",
          "type": "uint256"
        }
      ],
      "stateMutability": "view",
      "type": "function",
      "constant": true
    },
    {
      "inputs": [
        {
          "internalType": "address",
          "name": "spender",
          "type": "address"
        },
        {
          "internalType": "uint256",
          "name": "addedValue",
          "type": "uint256"
        }
      ],
      "name": "increaseAllowance",
      "outputs": [
        {
          "internalType": "bool",
          "name": "",
          "type": "bool"
        }
      ],
      "stateMutability": "nonpayable",
      "type": "function"
    },
    {
      "inputs": [],
      "name": "name",
      "outputs": [
        {
          "internalType": "string",
          "name": "",
          "type": "string"
        }
      ],
      "stateMutability": "view",
      "type": "function",
      "constant": true
    },
    {
      "inputs": [
        {
          "internalType": "address",
          "name": "owner",
          "type": "address"
        }
      ],
      "name": "nonces",
      "outputs": [
        {
          "internalType": "uint256",
          "name": "",
          "type": "uint256"
        }
      ],
      "stateMutability": "view",
      "type": "function",
      "constant": true
    },
    {
      "inputs": [
        {
          "internalType": "address",
          "name": "account",
          "type": "address"
        }
      ],
      "name": "numCheckpoints",
      "outputs": [
        {
          "internalType": "uint32",
          "name": "",
          "type": "uint32"
        }
      ],
      "stateMutability": "view",
      "type": "function",
      "constant": true
    },
    {
      "inputs": [],
      "name": "owner",
      "outputs": [
        {
          "internalType": "address",
          "name": "",
          "type": "address"
        }
      ],
      "stateMutability": "view",
      "type": "function",
      "constant": true
    },
    {
      "inputs": [],
      "name": "paused",
      "outputs": [
        {
          "internalType": "bool",
          "name": "",
          "type": "bool"
        }
      ],
      "stateMutability": "view",
      "type": "function",
      "constant": true
    },
    {
      "inputs": [
        {
          "internalType": "address",
          "name": "owner",
          "type": "address"
        },
        {
          "internalType": "address",
          "name": "spender",
          "type": "address"
        },
        {
          "internalType": "uint256",
          "name": "value",
          "type": "uint256"
        },
        {
          "internalType": "uint256",
          "name": "deadline",
          "type": "uint256"
        },
        {
          "internalType": "uint8",
          "name": "v",
          "type": "uint8"
        },
        {
          "internalType": "bytes32",
          "name": "r",
          "type": "bytes32"
        },
        {
          "internalType": "bytes32",
          "name": "s",
          "type": "bytes32"
        }
      ],
      "name": "permit",
      "outputs": [],
      "stateMutability": "nonpayable",
      "type": "function"
    },
    {
      "inputs": [],
      "name": "proxiableUUID",
      "outputs": [
        {
          "internalType": "bytes32",
          "name": "",
          "type": "bytes32"
        }
      ],
      "stateMutability": "view",
      "type": "function",
      "constant": true
    },
    {
      "inputs": [],
      "name": "renounceOwnership",
      "outputs": [],
      "stateMutability": "nonpayable",
      "type": "function"
    },
    {
      "inputs": [],
      "name": "symbol",
      "outputs": [
        {
          "internalType": "string",
          "name": "",
          "type": "string"
        }
      ],
      "stateMutability": "view",
      "type": "function",
      "constant": true
    },
    {
      "inputs": [],
      "name": "totalSupply",
      "outputs": [
        {
          "internalType": "uint256",
          "name": "",
          "type": "uint256"
        }
      ],
      "stateMutability": "view",
      "type": "function",
      "constant": true
    },
    {
      "inputs": [
        {
          "internalType": "uint256",
          "name": "snapshotId",
          "type": "uint256"
        }
      ],
      "name": "totalSupplyAt",
      "outputs": [
        {
          "internalType": "uint256",
          "name": "",
          "type": "uint256"
        }
      ],
      "stateMutability": "view",
      "type": "function",
      "constant": true
    },
    {
      "inputs": [
        {
          "internalType": "address",
          "name": "to",
          "type": "address"
        },
        {
          "internalType": "uint256",
          "name": "amount",
          "type": "uint256"
        }
      ],
      "name": "transfer",
      "outputs": [
        {
          "internalType": "bool",
          "name": "",
          "type": "bool"
        }
      ],
      "stateMutability": "nonpayable",
      "type": "function"
    },
    {
      "inputs": [
        {
          "internalType": "address",
          "name": "from",
          "type": "address"
        },
        {
          "internalType": "address",
          "name": "to",
          "type": "address"
        },
        {
          "internalType": "uint256",
          "name": "amount",
          "type": "uint256"
        }
      ],
      "name": "transferFrom",
      "outputs": [
        {
          "internalType": "bool",
          "name": "",
          "type": "bool"
        }
      ],
      "stateMutability": "nonpayable",
      "type": "function"
    },
    {
      "inputs": [
        {
          "internalType": "address",
          "name": "newOwner",
          "type": "address"
        }
      ],
      "name": "transferOwnership",
      "outputs": [],
      "stateMutability": "nonpayable",
      "type": "function"
    },
    {
      "inputs": [
        {
          "internalType": "address",
          "name": "newImplementation",
          "type": "address"
        }
      ],
      "name": "upgradeTo",
      "outputs": [],
      "stateMutability": "nonpayable",
      "type": "function"
    },
    {
      "inputs": [
        {
          "internalType": "address",
          "name": "newImplementation",
          "type": "address"
        },
        {
          "internalType": "bytes",
          "name": "data",
          "type": "bytes"
        }
      ],
      "name": "upgradeToAndCall",
      "outputs": [],
      "stateMutability": "payable",
      "type": "function",
      "payable": true
    },
    {
      "inputs": [],
      "name": "social_contract",
      "outputs": [
        {
          "internalType": "string",
          "name": "",
          "type": "string"
        }
      ],
      "stateMutability": "pure",
      "type": "function",
      "constant": true
    },
    {
      "inputs": [],
      "name": "tokenomics",
      "outputs": [
        {
          "internalType": "string",
          "name": "",
          "type": "string"
        }
      ],
      "stateMutability": "pure",
      "type": "function",
      "constant": true
    },
    {
      "inputs": [],
      "name": "white_paper",
      "outputs": [
        {
          "internalType": "string",
          "name": "",
          "type": "string"
        }
      ],
      "stateMutability": "pure",
      "type": "function",
      "constant": true
    },
    {
      "inputs": [],
      "name": "initialize",
      "outputs": [],
      "stateMutability": "nonpayable",
      "type": "function"
    },
    {
      "inputs": [],
      "name": "snapshot",
      "outputs": [],
      "stateMutability": "nonpayable",
      "type": "function"
    },
    {
      "inputs": [],
      "name": "pause",
      "outputs": [],
      "stateMutability": "nonpayable",
      "type": "function"
    },
    {
      "inputs": [],
      "name": "unpause",
      "outputs": [],
      "stateMutability": "nonpayable",
      "type": "function"
    }
  ],
  "bytecode": "0x60a0604052306080523480156200001557600080fd5b506200002062000026565b620000e8565b600054610100900460ff1615620000935760405162461bcd60e51b815260206004820152602760248201527f496e697469616c697a61626c653a20636f6e747261637420697320696e697469604482015266616c697a696e6760c81b606482015260840160405180910390fd5b60005460ff9081161015620000e6576000805460ff191660ff9081179091556040519081527f7f26b83ff96e1f2b6a682f133852f6798a09c465da95921460cefb38474024989060200160405180910390a15b565b60805161460e620001206000396000818161083a0152818161088301528181610a5001528181610a900152610b23015261460e6000f3fe60806040526004361061023b5760003560e01c8063715018a61161012e5780639ab24eb0116100ab578063dd62ed3e1161006f578063dd62ed3e1461069b578063e78a76c0146106bb578063e96f5c5b146106d0578063f1127ed8146106e5578063f2fde38b1461072f57600080fd5b80639ab24eb0146105fb578063a457c2d71461061b578063a9059cbb1461063b578063c3cda5201461065b578063d505accf1461067b57600080fd5b80638da5cb5b116100f25780638da5cb5b146105735780638e539e8c1461059157806395d89b41146105b15780639711715a146105c6578063981b24d0146105db57600080fd5b8063715018a6146104f457806379cc6790146105095780637ecebe00146105295780638129fc1c146105495780638456cb591461055e57600080fd5b806342966c68116101bc578063587cde1e11610180578063587cde1e146103ff5780635c19a95c146104515780635c975abb146104715780636fcfff451461048957806370a08231146104be57600080fd5b806342966c68146103825780634ac7251d146103a25780634ee2cd7e146103b75780634f1ef286146103d757806352d1902d146103ea57600080fd5b80633644e515116102035780633644e515146102f65780633659cfe61461030b578063395093511461032d5780633a46b1a81461034d5780633f4ba83a1461036d57600080fd5b806306fdde0314610240578063095ea7b31461026b57806318160ddd1461029b57806323b872dd146102ba578063313ce567146102da575b600080fd5b34801561024c57600080fd5b5061025561074f565b6040516102629190612ebe565b60405180910390f35b34801561027757600080fd5b5061028b610286366004612f08565b6107e1565b6040519015158152602001610262565b3480156102a757600080fd5b506035545b604051908152602001610262565b3480156102c657600080fd5b5061028b6102d5366004612f32565b6107fb565b3480156102e657600080fd5b5060405160128152602001610262565b34801561030257600080fd5b506102ac610821565b34801561031757600080fd5b5061032b610326366004612f6e565b610830565b005b34801561033957600080fd5b5061028b610348366004612f08565b610918565b34801561035957600080fd5b506102ac610368366004612f08565b61093a565b34801561037957600080fd5b5061032b6109ae565b34801561038e57600080fd5b5061032b61039d366004612f89565b6109c0565b3480156103ae57600080fd5b506102556109ca565b3480156103c357600080fd5b506102ac6103d2366004612f08565b6109ed565b61032b6103e5366004612fb8565b610a46565b3480156103f657600080fd5b506102ac610b16565b34801561040b57600080fd5b5061043961041a366004612f6e565b6001600160a01b03908116600090815261019460205260409020541690565b6040516001600160a01b039091168152602001610262565b34801561045d57600080fd5b5061032b61046c366004612f6e565b610bc9565b34801561047d57600080fd5b5060fb5460ff1661028b565b34801561049557600080fd5b506104a96104a4366004612f6e565b610bd3565b60405163ffffffff9091168152602001610262565b3480156104ca57600080fd5b506102ac6104d9366004612f6e565b6001600160a01b031660009081526033602052604090205490565b34801561050057600080fd5b5061032b610bf6565b34801561051557600080fd5b5061032b610524366004612f08565b610c08565b34801561053557600080fd5b506102ac610544366004612f6e565b610c1d565b34801561055557600080fd5b5061032b610c3c565b34801561056a57600080fd5b5061032b610e0a565b34801561057f57600080fd5b5060c9546001600160a01b0316610439565b34801561059d57600080fd5b506102ac6105ac366004612f89565b610e1a565b3480156105bd57600080fd5b50610255610e77565b3480156105d257600080fd5b5061032b610e86565b3480156105e757600080fd5b506102ac6105f6366004612f89565b610e96565b34801561060757600080fd5b506102ac610616366004612f6e565b610ec1565b34801561062757600080fd5b5061028b610636366004612f08565b610f4a565b34801561064757600080fd5b5061028b610656366004612f08565b610fd0565b34801561066757600080fd5b5061032b61067636600461308b565b610fde565b34801561068757600080fd5b5061032b6106963660046130e3565b611114565b3480156106a757600080fd5b506102ac6106b636600461314d565b611278565b3480156106c757600080fd5b506102556112a3565b3480156106dc57600080fd5b506102556112c3565b3480156106f157600080fd5b50610705610700366004613180565b6112e6565b60408051825163ffffffff1681526020928301516001600160e01b03169281019290925201610262565b34801561073b57600080fd5b5061032b61074a366004612f6e565b61136b565b60606036805461075e906131c0565b80601f016020809104026020016040519081016040528092919081815260200182805461078a906131c0565b80156107d75780601f106107ac576101008083540402835291602001916107d7565b820191906000526020600020905b8154815290600101906020018083116107ba57829003601f168201915b5050505050905090565b6000336107ef8185856113e1565b60019150505b92915050565b600033610809858285611505565b61081485858561157f565b60019150505b9392505050565b600061082b61173b565b905090565b6001600160a01b037f00000000000000000000000000000000000000000000000000000000000000001630036108815760405162461bcd60e51b8152600401610878906131f4565b60405180910390fd5b7f00000000000000000000000000000000000000000000000000000000000000006001600160a01b03166108ca6000805160206143f4833981519152546001600160a01b031690565b6001600160a01b0316146108f05760405162461bcd60e51b815260040161087890613240565b6108f9816117b8565b60408051600080825260208201909252610915918391906117c0565b50565b6000336107ef81858561092b8383611278565b61093591906132a2565b6113e1565b600043821061098b5760405162461bcd60e51b815260206004820152601f60248201527f4552433230566f7465733a20626c6f636b206e6f7420796574206d696e6564006044820152606401610878565b6001600160a01b03831660009081526101956020526040902061081a9083611930565b6109b6611a27565b6109be611a81565b565b6109153382611ad3565b6060604051806101a0016040528061016281526020016144776101629139905090565b6001600160a01b038216600090815260976020526040812081908190610a14908590611add565b9150915081610a3b576001600160a01b038516600090815260336020526040902054610a3d565b805b95945050505050565b6001600160a01b037f0000000000000000000000000000000000000000000000000000000000000000163003610a8e5760405162461bcd60e51b8152600401610878906131f4565b7f00000000000000000000000000000000000000000000000000000000000000006001600160a01b0316610ad76000805160206143f4833981519152546001600160a01b031690565b6001600160a01b031614610afd5760405162461bcd60e51b815260040161087890613240565b610b06826117b8565b610b12828260016117c0565b5050565b6000306001600160a01b037f00000000000000000000000000000000000000000000000000000000000000001614610bb65760405162461bcd60e51b815260206004820152603860248201527f555550535570677261646561626c653a206d757374206e6f742062652063616c60448201527f6c6564207468726f7567682064656c656761746563616c6c00000000000000006064820152608401610878565b506000805160206143f483398151915290565b6109153382611bd9565b6001600160a01b038116600090815261019560205260408120546107f590611c54565b610bfe611a27565b6109be6000611cbd565b610c13823383611505565b610b128282611ad3565b6001600160a01b038116600090815261016160205260408120546107f5565b600054610100900460ff1615808015610c5c5750600054600160ff909116105b80610c765750303b158015610c76575060005460ff166001145b610cd95760405162461bcd60e51b815260206004820152602e60248201527f496e697469616c697a61626c653a20636f6e747261637420697320616c72656160448201526d191e481a5b9a5d1a585b1a5e995960921b6064820152608401610878565b6000805460ff191660011790558015610cfc576000805461ff0019166101001790555b610d4460405180604001604052806009815260200168213930b4b721b7b4b760b91b81525060405180604001604052806005815260200164213930b4b760d91b815250611d0f565b610d4c611d40565b610d54611d40565b610d5c611d67565b610d64611d96565b610d8e60405180604001604052806009815260200168213930b4b721b7b4b760b91b815250611dc5565b610d96611d40565b610d9e611d40565b610dc233610dae6012600a613391565b610dbd9064e8d4a510006133a0565b611e0f565b8015610915576000805461ff0019169055604051600181527f7f26b83ff96e1f2b6a682f133852f6798a09c465da95921460cefb38474024989060200160405180910390a150565b610e12611a27565b6109be611e19565b6000438210610e6b5760405162461bcd60e51b815260206004820152601f60248201527f4552433230566f7465733a20626c6f636b206e6f7420796574206d696e6564006044820152606401610878565b6107f561019683611930565b60606037805461075e906131c0565b610e8e611a27565b610915611e56565b6000806000610ea6846098611add565b9150915081610eb757603554610eb9565b805b949350505050565b6001600160a01b038116600090815261019560205260408120548015610f37576001600160a01b038316600090815261019560205260409020610f056001836133b7565b81548110610f1557610f156133ca565b60009182526020909120015464010000000090046001600160e01b0316610f3a565b60005b6001600160e01b03169392505050565b60003381610f588286611278565b905083811015610fb85760405162461bcd60e51b815260206004820152602560248201527f45524332303a2064656372656173656420616c6c6f77616e63652062656c6f77604482015264207a65726f60d81b6064820152608401610878565b610fc582868684036113e1565b506001949350505050565b6000336107ef81858561157f565b8342111561102e5760405162461bcd60e51b815260206004820152601d60248201527f4552433230566f7465733a207369676e617475726520657870697265640000006044820152606401610878565b604080517fe48329057bfd03d55e49b547132e39cffd9c1820ad7b9d4c5307691425d15adf60208201526001600160a01b0388169181019190915260608101869052608081018590526000906110a8906110a09060a00160405160208183030381529060405280519060200120611eb0565b858585611efe565b90506110b381611f26565b86146111015760405162461bcd60e51b815260206004820152601960248201527f4552433230566f7465733a20696e76616c6964206e6f6e6365000000000000006044820152606401610878565b61110b8188611bd9565b50505050505050565b834211156111645760405162461bcd60e51b815260206004820152601d60248201527f45524332305065726d69743a206578706972656420646561646c696e650000006044820152606401610878565b60007f6e71edae12b1b97f4d1f60370fef10105fa2faae0126114a169c64845d6126c98888886111938c611f26565b6040805160208101969096526001600160a01b0394851690860152929091166060840152608083015260a082015260c0810186905260e00160405160208183030381529060405280519060200120905060006111ee82611eb0565b905060006111fe82878787611efe565b9050896001600160a01b0316816001600160a01b0316146112615760405162461bcd60e51b815260206004820152601e60248201527f45524332305065726d69743a20696e76616c6964207369676e617475726500006044820152606401610878565b61126c8a8a8a6113e1565b50505050505050505050565b6001600160a01b03918216600090815260346020908152604080832093909416825291909152205490565b60606040518060600160405280603c8152602001614414603c9139905090565b606060405180610e600160405280610e3781526020016135bd610e379139905090565b60408051808201909152600080825260208201526001600160a01b038316600090815261019560205260409020805463ffffffff841690811061132b5761132b6133ca565b60009182526020918290206040805180820190915291015463ffffffff8116825264010000000090046001600160e01b0316918101919091529392505050565b611373611a27565b6001600160a01b0381166113d85760405162461bcd60e51b815260206004820152602660248201527f4f776e61626c653a206e6577206f776e657220697320746865207a65726f206160448201526564647265737360d01b6064820152608401610878565b61091581611cbd565b6001600160a01b0383166114435760405162461bcd60e51b8152602060048201526024808201527f45524332303a20617070726f76652066726f6d20746865207a65726f206164646044820152637265737360e01b6064820152608401610878565b6001600160a01b0382166114a45760405162461bcd60e51b815260206004820152602260248201527f45524332303a20617070726f766520746f20746865207a65726f206164647265604482015261737360f01b6064820152608401610878565b6001600160a01b0383811660008181526034602090815260408083209487168084529482529182902085905590518481527f8c5be1e5ebec7d5bd14f71427d1e84f3dd0314c0f7b2291e5b200ac8c7c3b925910160405180910390a3505050565b60006115118484611278565b90506000198114611579578181101561156c5760405162461bcd60e51b815260206004820152601d60248201527f45524332303a20696e73756666696369656e7420616c6c6f77616e63650000006044820152606401610878565b61157984848484036113e1565b50505050565b6001600160a01b0383166115e35760405162461bcd60e51b815260206004820152602560248201527f45524332303a207472616e736665722066726f6d20746865207a65726f206164604482015264647265737360d81b6064820152608401610878565b6001600160a01b0382166116455760405162461bcd60e51b815260206004820152602360248201527f45524332303a207472616e7366657220746f20746865207a65726f206164647260448201526265737360e81b6064820152608401610878565b611650838383611f4f565b6001600160a01b038316600090815260336020526040902054818110156116c85760405162461bcd60e51b815260206004820152602660248201527f45524332303a207472616e7366657220616d6f756e7420657863656564732062604482015265616c616e636560d01b6064820152608401610878565b6001600160a01b0380851660008181526033602052604080822086860390559286168082529083902080548601905591517fddf252ad1be2c89b69c2b068fc378daa952ba7f163c4a11628f55a4df523b3ef906117289086815260200190565b60405180910390a3611579848484611f62565b600061082b7f8b73c3c69bb8fe3d512ecc4cf759cc79239f7b179b0ffacaa9a75d522b39400f61176b61012d5490565b61012e546040805160208101859052908101839052606081018290524660808201523060a082015260009060c0016040516020818303038152906040528051906020012090509392505050565b610915611a27565b7f4910fdfa16fed3260ed0e7147f7cc6da11a60208b5b9406d12a635614ffd91435460ff16156117f8576117f383611f6d565b505050565b826001600160a01b03166352d1902d6040518163ffffffff1660e01b8152600401602060405180830381865afa925050508015611852575060408051601f3d908101601f1916820190925261184f918101906133e0565b60015b6118b55760405162461bcd60e51b815260206004820152602e60248201527f45524331393637557067726164653a206e657720696d706c656d656e7461746960448201526d6f6e206973206e6f74205555505360901b6064820152608401610878565b6000805160206143f483398151915281146119245760405162461bcd60e51b815260206004820152602960248201527f45524331393637557067726164653a20756e737570706f727465642070726f786044820152681a58589b195555525160ba1b6064820152608401610878565b506117f3838383612009565b81546000908181600581111561198a57600061194b8461202e565b61195590856133b7565b600088815260209020909150869082015463ffffffff16111561197a57809150611988565b6119858160016132a2565b92505b505b808210156119d757600061199e8383612116565b600088815260209020909150869082015463ffffffff1611156119c3578091506119d1565b6119ce8160016132a2565b92505b5061198a565b8015611a11576119fa866119ec6001846133b7565b600091825260209091200190565b5464010000000090046001600160e01b0316611a14565b60005b6001600160e01b03169695505050505050565b60c9546001600160a01b031633146109be5760405162461bcd60e51b815260206004820181905260248201527f4f776e61626c653a2063616c6c6572206973206e6f7420746865206f776e65726044820152606401610878565b611a89612131565b60fb805460ff191690557f5db9ee0a495bf2e6ff9c91a7834c1ba4fdd244a5e8aa4e537bd38aeae4b073aa335b6040516001600160a01b03909116815260200160405180910390a1565b610b12828261217a565b60008060008411611b295760405162461bcd60e51b815260206004820152601660248201527504552433230536e617073686f743a20696420697320360541b6044820152606401610878565b611b31612193565b841115611b805760405162461bcd60e51b815260206004820152601d60248201527f4552433230536e617073686f743a206e6f6e6578697374656e742069640000006044820152606401610878565b6000611b8c848661219e565b84549091508103611ba4576000809250925050611bd2565b6001846001018281548110611bbb57611bbb6133ca565b90600052602060002001549250925050611bd2565b505b9250929050565b6001600160a01b0382811660008181526101946020818152604080842080546033845282862054949093528787166001600160a01b03198416811790915590519190951694919391928592917f3134e8a2e6d97e929a7e54011ea5485d7d196dd5f0ba4d4ef95803e8e3fc257f9190a461157982848361223d565b600063ffffffff821115611cb95760405162461bcd60e51b815260206004820152602660248201527f53616665436173743a2076616c756520646f65736e27742066697420696e203360448201526532206269747360d01b6064820152608401610878565b5090565b60c980546001600160a01b038381166001600160a01b0319831681179093556040519116919082907f8be0079c531659141344cd1fd0a4f28419497f9722a3daafe3b4186f6b6457e090600090a35050565b600054610100900460ff16611d365760405162461bcd60e51b8152600401610878906133f9565b610b12828261237c565b600054610100900460ff166109be5760405162461bcd60e51b8152600401610878906133f9565b600054610100900460ff16611d8e5760405162461bcd60e51b8152600401610878906133f9565b6109be6123bc565b600054610100900460ff16611dbd5760405162461bcd60e51b8152600401610878906133f9565b6109be6123ec565b600054610100900460ff16611dec5760405162461bcd60e51b8152600401610878906133f9565b61091581604051806040016040528060018152602001603160f81b81525061241f565b610b128282612462565b611e216124ed565b60fb805460ff191660011790557f62e78cea01bee320cd4e420270b5ea74000d11b0c9f74754ebdbfc544b05a258611ab63390565b6000611e66609a80546001019055565b6000611e70612193565b90507f8030e83b04d87bef53480e26263266d6ca66863aa8506aca6f2559d18aa1cb6781604051611ea391815260200190565b60405180910390a1919050565b60006107f5611ebd61173b565b8360405161190160f01b6020820152602281018390526042810182905260009060620160405160208183030381529060405280519060200120905092915050565b6000806000611f0f87878787612533565b91509150611f1c816125f7565b5095945050505050565b6001600160a01b0381166000908152610161602052604090208054600181018255905b50919050565b611f576124ed565b6117f3838383612741565b6117f3838383612789565b6001600160a01b0381163b611fda5760405162461bcd60e51b815260206004820152602d60248201527f455243313936373a206e657720696d706c656d656e746174696f6e206973206e60448201526c1bdd08184818dbdb9d1c9858dd609a1b6064820152608401610878565b6000805160206143f483398151915280546001600160a01b0319166001600160a01b0392909216919091179055565b612012836127bc565b60008251118061201f5750805b156117f35761157983836127fc565b60008160000361204057506000919050565b6000600161204d846128e7565b901c6001901b9050600181848161206657612066613444565b048201901c9050600181848161207e5761207e613444565b048201901c9050600181848161209657612096613444565b048201901c905060018184816120ae576120ae613444565b048201901c905060018184816120c6576120c6613444565b048201901c905060018184816120de576120de613444565b048201901c905060018184816120f6576120f6613444565b048201901c905061081a8182858161211057612110613444565b0461297b565b6000612125600284841861345a565b61081a908484166132a2565b60fb5460ff166109be5760405162461bcd60e51b815260206004820152601460248201527314185d5cd8589b194e881b9bdd081c185d5cd95960621b6044820152606401610878565b6121848282612991565b611579610196612ad883612ae4565b600061082b609a5490565b815460009081036121b1575060006107f5565b82546000905b808210156121fe5760006121cb8383612116565b600087815260209020909150859082015411156121ea578091506121f8565b6121f58160016132a2565b92505b506121b7565b60008211801561221c575083612219866119ec6001866133b7565b54145b156122355761222c6001836133b7565b925050506107f5565b5090506107f5565b816001600160a01b0316836001600160a01b03161415801561225f5750600081115b156117f3576001600160a01b038316156122ee576001600160a01b038316600090815261019560205260408120819061229b90612ad885612ae4565b91509150846001600160a01b03167fdec2bacdd2f05b59de34da9b523dff8be42e5e38e818c82fdb0bae774387a72483836040516122e3929190918252602082015260400190565b60405180910390a250505b6001600160a01b038216156117f3576001600160a01b038216600090815261019560205260408120819061232590612c3885612ae4565b91509150836001600160a01b03167fdec2bacdd2f05b59de34da9b523dff8be42e5e38e818c82fdb0bae774387a724838360405161236d929190918252602082015260400190565b60405180910390a25050505050565b600054610100900460ff166123a35760405162461bcd60e51b8152600401610878906133f9565b60366123af83826134ca565b5060376117f382826134ca565b600054610100900460ff166123e35760405162461bcd60e51b8152600401610878906133f9565b6109be33611cbd565b600054610100900460ff166124135760405162461bcd60e51b8152600401610878906133f9565b60fb805460ff19169055565b600054610100900460ff166124465760405162461bcd60e51b8152600401610878906133f9565b81516020928301208151919092012061012d9190915561012e55565b61246c8282612c44565b6035546001600160e01b0310156124de5760405162461bcd60e51b815260206004820152603060248201527f4552433230566f7465733a20746f74616c20737570706c79207269736b73206f60448201526f766572666c6f77696e6720766f74657360801b6064820152608401610878565b611579610196612c3883612ae4565b60fb5460ff16156109be5760405162461bcd60e51b815260206004820152601060248201526f14185d5cd8589b194e881c185d5cd95960821b6044820152606401610878565b6000807f7fffffffffffffffffffffffffffffff5d576e7357a4501ddfe92f46681b20a083111561256a57506000905060036125ee565b6040805160008082526020820180845289905260ff881692820192909252606081018690526080810185905260019060a0016020604051602081039080840390855afa1580156125be573d6000803e3d6000fd5b5050604051601f1901519150506001600160a01b0381166125e7576000600192509250506125ee565b9150600090505b94509492505050565b600081600481111561260b5761260b61358a565b036126135750565b60018160048111156126275761262761358a565b036126745760405162461bcd60e51b815260206004820152601860248201527f45434453413a20696e76616c6964207369676e617475726500000000000000006044820152606401610878565b60028160048111156126885761268861358a565b036126d55760405162461bcd60e51b815260206004820152601f60248201527f45434453413a20696e76616c6964207369676e6174757265206c656e677468006044820152606401610878565b60038160048111156126e9576126e961358a565b036109155760405162461bcd60e51b815260206004820152602260248201527f45434453413a20696e76616c6964207369676e6174757265202773272076616c604482015261756560f01b6064820152608401610878565b6001600160a01b0383166127605761275882612d19565b6117f3612d4c565b6001600160a01b0382166127775761275883612d19565b61278083612d19565b6117f382612d19565b6001600160a01b03838116600090815261019460205260408082205485841683529120546117f39291821691168361223d565b6127c581611f6d565b6040516001600160a01b038216907fbc7cd75a20ee27fd9adebab32041f755214dbc6bffa90cc0225b39da2e5c2d3b90600090a250565b60606001600160a01b0383163b6128645760405162461bcd60e51b815260206004820152602660248201527f416464726573733a2064656c65676174652063616c6c20746f206e6f6e2d636f6044820152651b9d1c9858dd60d21b6064820152608401610878565b600080846001600160a01b03168460405161287f91906135a0565b600060405180830381855af49150503d80600081146128ba576040519150601f19603f3d011682016040523d82523d6000602084013e6128bf565b606091505b5091509150610a3d828260405180606001604052806027815260200161445060279139612d5a565b600080608083901c156128fc57608092831c92015b604083901c1561290e57604092831c92015b602083901c1561292057602092831c92015b601083901c1561293257601092831c92015b600883901c1561294457600892831c92015b600483901c1561295657600492831c92015b600283901c1561296857600292831c92015b600183901c156107f55760010192915050565b600081831061298a578161081a565b5090919050565b6001600160a01b0382166129f15760405162461bcd60e51b815260206004820152602160248201527f45524332303a206275726e2066726f6d20746865207a65726f206164647265736044820152607360f81b6064820152608401610878565b6129fd82600083611f4f565b6001600160a01b03821660009081526033602052604090205481811015612a715760405162461bcd60e51b815260206004820152602260248201527f45524332303a206275726e20616d6f756e7420657863656564732062616c616e604482015261636560f01b6064820152608401610878565b6001600160a01b03831660008181526033602090815260408083208686039055603580548790039055518581529192917fddf252ad1be2c89b69c2b068fc378daa952ba7f163c4a11628f55a4df523b3ef910160405180910390a36117f383600084611f62565b600061081a82846133b7565b82546000908190818115612b3157612b01876119ec6001856133b7565b60408051808201909152905463ffffffff8116825264010000000090046001600160e01b03166020820152612b46565b60408051808201909152600080825260208201525b905080602001516001600160e01b03169350612b6684868863ffffffff16565b9250600082118015612b7e5750805163ffffffff1643145b15612bc357612b8c83612d73565b612b9b886119ec6001866133b7565b80546001600160e01b03929092166401000000000263ffffffff909216919091179055612c2e565b866040518060400160405280612bd843611c54565b63ffffffff168152602001612bec86612d73565b6001600160e01b0390811690915282546001810184556000938452602093849020835194909301519091166401000000000263ffffffff909316929092179101555b5050935093915050565b600061081a82846132a2565b6001600160a01b038216612c9a5760405162461bcd60e51b815260206004820152601f60248201527f45524332303a206d696e7420746f20746865207a65726f2061646472657373006044820152606401610878565b612ca660008383611f4f565b8060356000828254612cb891906132a2565b90915550506001600160a01b0382166000818152603360209081526040808320805486019055518481527fddf252ad1be2c89b69c2b068fc378daa952ba7f163c4a11628f55a4df523b3ef910160405180910390a3610b1260008383611f62565b6001600160a01b03811660009081526097602090815260408083206033909252909120546109159190612ddc565b612ddc565b6109be6098612d4760355490565b60608315612d6957508161081a565b61081a8383612e26565b60006001600160e01b03821115611cb95760405162461bcd60e51b815260206004820152602760248201527f53616665436173743a2076616c756520646f65736e27742066697420696e20326044820152663234206269747360c81b6064820152608401610878565b6000612de6612193565b905080612df284612e50565b10156117f3578254600180820185556000858152602080822090930193909355938401805494850181558252902090910155565b815115612e365781518083602001fd5b8060405162461bcd60e51b81526004016108789190612ebe565b80546000908103612e6357506000919050565b81548290612e73906001906133b7565b81548110612e8357612e836133ca565b90600052602060002001549050919050565b919050565b60005b83811015612eb5578181015183820152602001612e9d565b50506000910152565b6020815260008251806020840152612edd816040850160208701612e9a565b601f01601f19169190910160400192915050565b80356001600160a01b0381168114612e9557600080fd5b60008060408385031215612f1b57600080fd5b612f2483612ef1565b946020939093013593505050565b600080600060608486031215612f4757600080fd5b612f5084612ef1565b9250612f5e60208501612ef1565b9150604084013590509250925092565b600060208284031215612f8057600080fd5b61081a82612ef1565b600060208284031215612f9b57600080fd5b5035919050565b634e487b7160e01b600052604160045260246000fd5b60008060408385031215612fcb57600080fd5b612fd483612ef1565b9150602083013567ffffffffffffffff80821115612ff157600080fd5b818501915085601f83011261300557600080fd5b81358181111561301757613017612fa2565b604051601f8201601f19908116603f0116810190838211818310171561303f5761303f612fa2565b8160405282815288602084870101111561305857600080fd5b8260208601602083013760006020848301015280955050505050509250929050565b803560ff81168114612e9557600080fd5b60008060008060008060c087890312156130a457600080fd5b6130ad87612ef1565b955060208701359450604087013593506130c96060880161307a565b92506080870135915060a087013590509295509295509295565b600080600080600080600060e0888a0312156130fe57600080fd5b61310788612ef1565b965061311560208901612ef1565b955060408801359450606088013593506131316080890161307a565b925060a0880135915060c0880135905092959891949750929550565b6000806040838503121561316057600080fd5b61316983612ef1565b915061317760208401612ef1565b90509250929050565b6000806040838503121561319357600080fd5b61319c83612ef1565b9150602083013563ffffffff811681146131b557600080fd5b809150509250929050565b600181811c908216806131d457607f821691505b602082108103611f4957634e487b7160e01b600052602260045260246000fd5b6020808252602c908201527f46756e6374696f6e206d7573742062652063616c6c6564207468726f7567682060408201526b19195b1959d85d1958d85b1b60a21b606082015260800190565b6020808252602c908201527f46756e6374696f6e206d7573742062652063616c6c6564207468726f7567682060408201526b6163746976652070726f787960a01b606082015260800190565b634e487b7160e01b600052601160045260246000fd5b808201808211156107f5576107f561328c565b600181815b80851115611bd05781600019048211156132d6576132d661328c565b808516156132e357918102915b93841c93908002906132ba565b6000826132ff575060016107f5565b8161330c575060006107f5565b8160018114613322576002811461332c57613348565b60019150506107f5565b60ff84111561333d5761333d61328c565b50506001821b6107f5565b5060208310610133831016604e8410600b841016171561336b575081810a6107f5565b61337583836132b5565b80600019048211156133895761338961328c565b029392505050565b600061081a60ff8416836132f0565b80820281158282048414176107f5576107f561328c565b818103818111156107f5576107f561328c565b634e487b7160e01b600052603260045260246000fd5b6000602082840312156133f257600080fd5b5051919050565b6020808252602b908201527f496e697469616c697a61626c653a20636f6e7472616374206973206e6f74206960408201526a6e697469616c697a696e6760a81b606082015260800190565b634e487b7160e01b600052601260045260246000fd5b60008261347757634e487b7160e01b600052601260045260246000fd5b500490565b601f8211156117f357600081815260208120601f850160051c810160208610156134a35750805b601f850160051c820191505b818110156134c2578281556001016134af565b505050505050565b815167ffffffffffffffff8111156134e4576134e4612fa2565b6134f8816134f284546131c0565b8461347c565b602080601f83116001811461352d57600084156135155750858301515b600019600386901b1c1916600185901b1785556134c2565b600085815260208120601f198616915b8281101561355c5788860151825594840194600190910190840161353d565b508582101561357a5787850151600019600388901b60f8161c191681555b5050505050600190811b01905550565b634e487b7160e01b600052602160045260246000fd5b600082516135b2818460208701612e9a565b919091019291505056fe427261696e436172676f3a204f776e2041492e427261696e436172676f2069732061207265636f6d6d656e646174696f6e2073797374656d2e20546865207573657220747261696e73207468656972206f776e20414920746f206b6e6f77207768617420746865207573657273206c696b65732c2077616e747320616e64206e656564732061726520616e64207468656e207265636f6d6d656e647320616374696f6e7320666f722074686520757365722e2054686520666972737420757365206361736520697320666f7220746865207265636f6d6d656e646174696f6e206f6620766964656f7320746f2077617463682e2054686520757365722063616e2075706c6f616420706173742076696577696e6720686973746f72792066726f6d20796f75747562652c204e6574666c69782c2068756c7520616e64206f74686572206f6e6c696e652073747265616d696e6720706c6174666f726d732077686963682077696c6c207468656e2067656e6572617465206120637573746f6d697a656420414920756e6971756520746f2074686520757365722e205468652075736572732041492077696c6c207468656e207265636f6d6d656e6420766964656f7320666f7220746865207573657220746f20776174636820696e20612066656564206f722073747265616d2073696d696c617220746f207468652074696b746f6b2f496e7374616772616d20666565642e2054686520757365722063616e206c696b652c206469736c696b652c20736b6970206f722061646420746f20706c61796c697374206f662074686520766964656f732e2054686520696e746572616374696f6e73206f66207468652075736572206675727468657220747261696e2074686520414920746f206b6e6f77206d6f72652061626f7574207468652075736572277320707265666572656e6365732e20546865206e65787420414920746f20626520636f6d706c657465642077696c6c20626520666f72206d757369632066756e6374696f6e696e672073696d696c617220746f2074686520766964656f207265636f6d6d656e646174696f6e2073797374656d2e54686520757365722077696c6c206861766520746865206f7074696f6e20746f2070617920666f72207468656972206f776e204149206f722068617665206120667265652041492e20417420616c6c2074696d65732074686520757365722077696c6c206d61696e7461696e20736f6c6520636f6e74726f6c206f6620746865697220646174612c20616e642074686569722041492e20486f77657665722c20746865792077696c6c206861766520746865206f70706f7274756e69747920746f2073656c6c207468652072696768747320746f20746865697220766964656f207265636f6d6d656e646174696f6e206665656420746f2061647665727469736572732e204966207468652075736572206973206f6e207468652066726565206f7074696f6e20746869732077696c6c2070617920666f722074686520636f737473206173736f636961746564207769746820636f6d7075746520616e642073746f72616765206f662074686569722041492e20496620612075736572207061797320666f72207468656972206f776e20414920746865792063616e2073656c6c2061636365737320746f207468656972207265636f6d6d656e646174696f6e206665656420746f206164766572746973657273206f722063686f7365206e6f7420746f6f2e4164646974696f6e616c6c792c2075736572732077696c6c206861766520746865206162696c69747920746f2073656c6c20746865697220646174612e20546865792063616e2073656c6c206974206261636b20746f20427261696e436172676f20746f20747261696e206120756e6976657273616c204149202854686520427261696e29206f7220746865792063616e2073656c6c20697420746f206164766572746973657273206f7220616e796f6e6520746865792077616e7420746f6f2e20497420697320746865207573657227732063686f696365207768657468657220746f2073656c6c2074686569722064617461206f72206e6f742e41667465722074686520696e697469616c204149207265636f6d6d656e646174696f6e2073797374656d732061726520617661696c61626c6520612067656e6572616c206d61726b6574706c61636520666f72206164646974696f6e616c204149207265636f6d6d656e646174696f6e2073797374656d732077696c6c206265206d61646520617661696c61626c6520746f20646576656c6f7065727320746f20696d706c656d656e74207468656972206f776e204149207265636f6d6d656e646174696f6e2073797374656d7320616e6420616464207468656d20746f20427261696e436172676f2e2054686520646576656c6f706572732063726561746564204149206d757374206265206f70656e20736f757263652c2062757420746865792063616e206c6963656e73652074686520757365206f6620746865697220414920746f2074686520427261696e436172676f2075736572732028427261696e69616373292e2055736572732063616e2063686f69636520746f2073756273637269626520746f2074686520646576656c6f7065727320414920616e64206f66667365742074686520636f7374732062792073656c6c696e672072696768747320746f207468652073756273657175656e746c792067656e657261746564206665656420746f20427261696e436172676f27732061647665727469736572732e41492072657175697265732064617461206265796f6e64207468652075736572277320707265666572656e6365732e20466f72206578616d706c652c20696e20746865206d6f766965207363656e6172696f2061626f76652c207468652064617461736574206f6620616c6c206d6f766965732c206163746f72732c207363726970747320616e64206f74686572206164646974696f6e616c20646174612077696c6c206d616b6520666f722061206d6f7265206163637572617465207265636f6d6d656e646174696f6e2073797374656d2e205468657265666f72652c20427261696e436172676f2077696c6c20616c6c6f7720666f7220636f6e7472696275746f727320746f206164642064617461736574732e205468652064617461736574732077696c6c206861766520746865206f70706f7274756e69747920746f2062652070757263686173656420627920427261696e436172676f20616e642075736564206279207468652054686520427261696e206f7220707572636861736564206469726563746c792062792074686520757365727320746f20656e68616e6365207468656972206f776e2041492e204966207468652064617461206973206120666565642c20666f72206578616d706c652063757272656e742073746f636b20707269636573207768696368206e6565647320746f206265207570646174656420726567756c61726c79207468656e20746865206461746120636f6e7472696275746f722063616e206c6963656e7365207468652064617461206665656420746f2074686520757365727320616e642f6f7220746f20427261696e436172676f2e54686520427261696e2077696c6c20626520696e666f726d65642066726f6d20427261696e696163732077686f20616c6c6f7720746865697220646174612066726f6d20746865697220747261696e656420414920746f20616c736f206265207573656420746f20747261696e2054686520427261696e2e20546869732077696c6c20616c6c6f7720666f722054686520427261696e20746f206265636f6d652062657474657220616e64207468657265666f726520746865207573657273204149206265747465722e204120706179696e6720757365722063616e206f7074206f7574206f662073686172696e672074686569722064617461207769746820747261696e696e672054686520427261696e20627574207573657273206f6e20746865206672656520746965722063616e6e6f742e2054686520427261696e2077696c6c20626520636c6f6e656420746f20612075736572206f6e206372656174696f6e206f66207468656972206163636f756e742e496e206f7264657220746f207363616c6520414920746f207365727665206d696c6c696f6e73206f662075736572732c20747261696e696e672074686569722041492c2073657276696e67207265636f6d6d656e646174696f6e7320616e642073746f72696e67207468656972206461746120616e206f7074696d697a656420616e6420636f737420656666696369656e74204d4c4f70732073797374656d206973206e65656465642e204b75626966792068617320626f746820616e206f70656e20736f7572636520696e66726173747275637475726520636f6d706f6e656e7420666f72207363616c696e67206163726f73732074686520636c6f756473207468652066756c6c20737461636b20776562206170706c69636174696f6e20616e6420612070726f7072696574617279204d4c4f707320696e6672617374727563747572652073797374656d207468617420697320746865206d6f737420636f73742065666665637469766520616e6420656666696369656e742073797374656d20696e2074686520696e6475737472792e2054686973206973206163686965766564206279206265696e67206d756c7469636c6f75642c20736561726368696e6720666f72206f7074696d756d2070726963696e672c20737472697070656420646f776e20636f6e7461696e6572732c207363616c61626c6520746f206d696c6c696f6e73206f66206578706572696d656e74732c20616e642063757272656e746c79207573656420617420636f6d70616e69657320696e207468652031306b2b206279206461746120736369656e746973747320657665727977686572652e360894a13ba1a3210667c828492db98dca3e2076cc3735a920a3ca505d382bbc4f70656e20536f757263650a596f7572206b65797320796f75722041490a596f7572206b65797320796f757220446174610a596f75206f776e204149416464726573733a206c6f772d6c6576656c2064656c65676174652063616c6c206661696c6564546865206d6f726520796f752075736520427261696e436172676f0a546865206d6f726520427261696e436f696e7320796f75206765740a546865206265747465722074686520414920676574730a546865206d6f726520796f757220427261696e436f696e732061726520776f7274680a546865206d6f726520796f752074656c6c20796f757220667269656e64730a546865206d6f726520427261696e436f696e7320796f75206765740a546865206265747465722074686520414920676574730a546865206d6f726520796f757220427261696e436f696e732061726520776f7274680a546865206d6f726520796f7520776f726b206f6e206275696c64696e67207468652041490a546865206d6f726520427261696e436f696e7320796f75206765740a546865206265747465722074686520414920676574730a546865206d6f726520796f757220427261696e436f696e732061726520776f7274682ea26469706673582212200b29e57cb817e5ac7d3ce4663328aa13977843a50a78a6b3b1c6c8695e4b192864736f6c63430008130033",
  "immutableReferences": {
    "798": [
      {
        "length": 32,
        "start": 2106
      },
      {
        "length": 32,
        "start": 2179
      },
      {
        "length": 32,
        "start": 2640
      },
      {
        "length": 32,
        "start": 2704
      },
      {
        "length": 32,
        "start": 2851
      }
    ]
  },
  "source": "// SPDX-License-Identifier: MIT\npragma solidity ^0.8.9;\n\nimport \"@openzeppelin/contracts-upgradeable/token/ERC20/ERC20Upgradeable.sol\";\nimport \"@openzeppelin/contracts-upgradeable/token/ERC20/extensions/ERC20BurnableUpgradeable.sol\";\nimport \"@openzeppelin/contracts-upgradeable/token/ERC20/extensions/ERC20SnapshotUpgradeable.sol\";\nimport \"@openzeppelin/contracts-upgradeable/access/OwnableUpgradeable.sol\";\nimport \"@openzeppelin/contracts-upgradeable/security/PausableUpgradeable.sol\";\nimport \"@openzeppelin/contracts-upgradeable/token/ERC20/extensions/draft-ERC20PermitUpgradeable.sol\";\nimport \"@openzeppelin/contracts-upgradeable/token/ERC20/extensions/ERC20VotesUpgradeable.sol\";\nimport \"@openzeppelin/contracts-upgradeable/proxy/utils/Initializable.sol\";\nimport \"@openzeppelin/contracts-upgradeable/proxy/utils/UUPSUpgradeable.sol\";\n\n/// @custom:security-contact security@braincargo.com\ncontract BrainCoinV2 is Initializable, ERC20Upgradeable, ERC20BurnableUpgradeable, ERC20SnapshotUpgradeable, OwnableUpgradeable, PausableUpgradeable, ERC20PermitUpgradeable, ERC20VotesUpgradeable, UUPSUpgradeable {\n    /// @custom:oz-upgrades-unsafe-allow constructor\n    constructor() {\n        _disableInitializers();\n    }\n\n        function social_contract() public pure returns (string memory) {\n        return \"Open Source\\nYour keys your AI\\nYour keys your Data\\nYou own AI\";\n    }\n\n    function tokenomics() public pure returns (string memory) {\n        return \"The more you use BrainCargo\\nThe more BrainCoins you get\\nThe better the AI gets\\nThe more your BrainCoins are worth\\nThe more you tell your friends\\nThe more BrainCoins you get\\nThe better the AI gets\\nThe more your BrainCoins are worth\\nThe more you work on building the AI\\nThe more BrainCoins you get\\nThe better the AI gets\\nThe more your BrainCoins are worth.\";\n    }\n\n    function white_paper() public pure returns (string memory){\n        return \"BrainCargo: Own AI.\"\n\"BrainCargo is a recommendation system. The user trains their own AI to know what the users likes, wants and needs are and then recommends actions for the user. The first use case is for the recommendation of videos to watch. The user can upload past viewing history from youtube, Netflix, hulu and other online streaming platforms which will then generate a customized AI unique to the user. The users AI will then recommend videos for the user to watch in a feed or stream similar to the tiktok/Instagram feed. The user can like, dislike, skip or add to playlist of the videos. The interactions of the user further train the AI to know more about the user\\'s preferences. The next AI to be completed will be for music functioning similar to the video recommendation system.\"\n\"The user will have the option to pay for their own AI or have a free AI. At all times the user will maintain sole control of their data, and their AI. However, they will have the opportunity to sell the rights to their video recommendation feed to advertisers. If the user is on the free option this will pay for the costs associated with compute and storage of their AI. If a user pays for their own AI they can sell access to their recommendation feed to advertisers or chose not too.\"\n\"Additionally, users will have the ability to sell their data. They can sell it back to BrainCargo to train a universal AI (The Brain) or they can sell it to advertisers or anyone they want too. It is the user\\'s choice whether to sell their data or not.\"\n\"After the initial AI recommendation systems are available a general marketplace for additional AI recommendation systems will be made available to developers to implement their own AI recommendation systems and add them to BrainCargo. The developers created AI must be open source, but they can license the use of their AI to the BrainCargo users (Brainiacs). Users can choice to subscribe to the developers AI and offset the costs by selling rights to the subsequently generated feed to BrainCargo\\'s advertisers.\"\n\"AI requires data beyond the user\\'s preferences. For example, in the movie scenario above, the dataset of all movies, actors, scripts and other additional data will make for a more accurate recommendation system. Therefore, BrainCargo will allow for contributors to add datasets. The datasets will have the opportunity to be purchased by BrainCargo and used by the The Brain or purchased directly by the users to enhance their own AI. If the data is a feed, for example current stock prices which needs to be updated regularly then the data contributor can license the data feed to the users and/or to BrainCargo.\"\n\"The Brain will be informed from Brainiacs who allow their data from their trained AI to also be used to train The Brain. This will allow for The Brain to become better and therefore the users AI better. A paying user can opt out of sharing their data with training The Brain but users on the free tier cannot. The Brain will be cloned to a user on creation of their account.\"\n\"In order to scale AI to serve millions of users, training their AI, serving recommendations and storing their data an optimized and cost efficient MLOps system is needed. Kubify has both an open source infrastructure component for scaling across the clouds the full stack web application and a proprietary MLOps infrastructure system that is the most cost effective and efficient system in the industry. This is achieved by being multicloud, searching for optimum pricing, stripped down containers, scalable to millions of experiments, and currently used at companies in the 10k+ by data scientists everywhere.\";\n\n    }\n\n\n\n    function initialize() initializer public {\n        __ERC20_init(\"BrainCoin\", \"Brain\");\n        __ERC20Burnable_init();\n        __ERC20Snapshot_init();\n        __Ownable_init();\n        __Pausable_init();\n        __ERC20Permit_init(\"BrainCoin\");\n        __ERC20Votes_init();\n        __UUPSUpgradeable_init();\n\n        _mint(msg.sender, 1000000000000 * 10 ** decimals());\n    }\n\n    function snapshot() public onlyOwner {\n        _snapshot();\n    }\n\n    function pause() public onlyOwner {\n        _pause();\n    }\n\n    function unpause() public onlyOwner {\n        _unpause();\n    }\n\n    function _beforeTokenTransfer(address from, address to, uint256 amount)\n        internal\n        whenNotPaused\n        override(ERC20Upgradeable, ERC20SnapshotUpgradeable)\n    {\n        super._beforeTokenTransfer(from, to, amount);\n    }\n\n    function _authorizeUpgrade(address newImplementation)\n        internal\n        onlyOwner\n        override\n    {}\n\n    // The following functions are overrides required by Solidity.\n\n    function _afterTokenTransfer(address from, address to, uint256 amount)\n        internal\n        override(ERC20Upgradeable, ERC20VotesUpgradeable)\n    {\n        super._afterTokenTransfer(from, to, amount);\n    }\n\n    function _mint(address to, uint256 amount)\n        internal\n        override(ERC20Upgradeable, ERC20VotesUpgradeable)\n    {\n        super._mint(to, amount);\n    }\n\n    function _burn(address account, uint256 amount)\n        internal\n        override(ERC20Upgradeable, ERC20VotesUpgradeable)\n    {\n        super._burn(account, amount);\n    }\n}\n",
  "sourcePath": "/Users/cream/Consulting/braincargo/BrainCoin/contracts/BrainCoinV2.sol",
  "compiler": {
    "name": "solc",
    "version": "0.8.19+commit.7dd6d404.Emscripten.clang"
  },
  "schemaVersion": "3.4.13",
  "updatedAt": "2023-03-05T21:28:32.223Z",
  "networkType": "ethereum",
  "devdoc": {
    "custom:security-contact": "security@braincargo.com",
    "events": {
      "AdminChanged(address,address)": {
        "details": "Emitted when the admin account has changed."
      },
      "Approval(address,address,uint256)": {
        "details": "Emitted when the allowance of a `spender` for an `owner` is set by a call to {approve}. `value` is the new allowance."
      },
      "BeaconUpgraded(address)": {
        "details": "Emitted when the beacon is upgraded."
      },
      "DelegateChanged(address,address,address)": {
        "details": "Emitted when an account changes their delegate."
      },
      "DelegateVotesChanged(address,uint256,uint256)": {
        "details": "Emitted when a token transfer or delegate change results in changes to a delegate's number of votes."
      },
      "Initialized(uint8)": {
        "details": "Triggered when the contract has been initialized or reinitialized."
      },
      "Paused(address)": {
        "details": "Emitted when the pause is triggered by `account`."
      },
      "Snapshot(uint256)": {
        "details": "Emitted by {_snapshot} when a snapshot identified by `id` is created."
      },
      "Transfer(address,address,uint256)": {
        "details": "Emitted when `value` tokens are moved from one account (`from`) to another (`to`). Note that `value` may be zero."
      },
      "Unpaused(address)": {
        "details": "Emitted when the pause is lifted by `account`."
      },
      "Upgraded(address)": {
        "details": "Emitted when the implementation is upgraded."
      }
    },
    "kind": "dev",
    "methods": {
      "DOMAIN_SEPARATOR()": {
        "details": "See {IERC20Permit-DOMAIN_SEPARATOR}."
      },
      "allowance(address,address)": {
        "details": "See {IERC20-allowance}."
      },
      "approve(address,uint256)": {
        "details": "See {IERC20-approve}. NOTE: If `amount` is the maximum `uint256`, the allowance is not updated on `transferFrom`. This is semantically equivalent to an infinite approval. Requirements: - `spender` cannot be the zero address."
      },
      "balanceOf(address)": {
        "details": "See {IERC20-balanceOf}."
      },
      "balanceOfAt(address,uint256)": {
        "details": "Retrieves the balance of `account` at the time `snapshotId` was created."
      },
      "burn(uint256)": {
        "details": "Destroys `amount` tokens from the caller. See {ERC20-_burn}."
      },
      "burnFrom(address,uint256)": {
        "details": "Destroys `amount` tokens from `account`, deducting from the caller's allowance. See {ERC20-_burn} and {ERC20-allowance}. Requirements: - the caller must have allowance for ``accounts``'s tokens of at least `amount`."
      },
      "checkpoints(address,uint32)": {
        "details": "Get the `pos`-th checkpoint for `account`."
      },
      "constructor": {
        "custom:oz-upgrades-unsafe-allow": "constructor"
      },
      "decimals()": {
        "details": "Returns the number of decimals used to get its user representation. For example, if `decimals` equals `2`, a balance of `505` tokens should be displayed to a user as `5.05` (`505 / 10 ** 2`). Tokens usually opt for a value of 18, imitating the relationship between Ether and Wei. This is the value {ERC20} uses, unless this function is overridden; NOTE: This information is only used for _display_ purposes: it in no way affects any of the arithmetic of the contract, including {IERC20-balanceOf} and {IERC20-transfer}."
      },
      "decreaseAllowance(address,uint256)": {
        "details": "Atomically decreases the allowance granted to `spender` by the caller. This is an alternative to {approve} that can be used as a mitigation for problems described in {IERC20-approve}. Emits an {Approval} event indicating the updated allowance. Requirements: - `spender` cannot be the zero address. - `spender` must have allowance for the caller of at least `subtractedValue`."
      },
      "delegate(address)": {
        "details": "Delegate votes from the sender to `delegatee`."
      },
      "delegateBySig(address,uint256,uint256,uint8,bytes32,bytes32)": {
        "details": "Delegates votes from signer to `delegatee`"
      },
      "delegates(address)": {
        "details": "Get the address `account` is currently delegating to."
      },
      "getPastTotalSupply(uint256)": {
        "details": "Retrieve the `totalSupply` at the end of `blockNumber`. Note, this value is the sum of all balances. It is but NOT the sum of all the delegated votes! Requirements: - `blockNumber` must have been already mined"
      },
      "getPastVotes(address,uint256)": {
        "details": "Retrieve the number of votes for `account` at the end of `blockNumber`. Requirements: - `blockNumber` must have been already mined"
      },
      "getVotes(address)": {
        "details": "Gets the current votes balance for `account`"
      },
      "increaseAllowance(address,uint256)": {
        "details": "Atomically increases the allowance granted to `spender` by the caller. This is an alternative to {approve} that can be used as a mitigation for problems described in {IERC20-approve}. Emits an {Approval} event indicating the updated allowance. Requirements: - `spender` cannot be the zero address."
      },
      "name()": {
        "details": "Returns the name of the token."
      },
      "nonces(address)": {
        "details": "See {IERC20Permit-nonces}."
      },
      "numCheckpoints(address)": {
        "details": "Get number of checkpoints for `account`."
      },
      "owner()": {
        "details": "Returns the address of the current owner."
      },
      "paused()": {
        "details": "Returns true if the contract is paused, and false otherwise."
      },
      "permit(address,address,uint256,uint256,uint8,bytes32,bytes32)": {
        "details": "See {IERC20Permit-permit}."
      },
      "proxiableUUID()": {
        "details": "Implementation of the ERC1822 {proxiableUUID} function. This returns the storage slot used by the implementation. It is used to validate the implementation's compatibility when performing an upgrade. IMPORTANT: A proxy pointing at a proxiable contract should not be considered proxiable itself, because this risks bricking a proxy that upgrades to it, by delegating to itself until out of gas. Thus it is critical that this function revert if invoked through a proxy. This is guaranteed by the `notDelegated` modifier."
      },
      "renounceOwnership()": {
        "details": "Leaves the contract without owner. It will not be possible to call `onlyOwner` functions anymore. Can only be called by the current owner. NOTE: Renouncing ownership will leave the contract without an owner, thereby removing any functionality that is only available to the owner."
      },
      "symbol()": {
        "details": "Returns the symbol of the token, usually a shorter version of the name."
      },
      "totalSupply()": {
        "details": "See {IERC20-totalSupply}."
      },
      "totalSupplyAt(uint256)": {
        "details": "Retrieves the total supply at the time `snapshotId` was created."
      },
      "transfer(address,uint256)": {
        "details": "See {IERC20-transfer}. Requirements: - `to` cannot be the zero address. - the caller must have a balance of at least `amount`."
      },
      "transferFrom(address,address,uint256)": {
        "details": "See {IERC20-transferFrom}. Emits an {Approval} event indicating the updated allowance. This is not required by the EIP. See the note at the beginning of {ERC20}. NOTE: Does not update the allowance if the current allowance is the maximum `uint256`. Requirements: - `from` and `to` cannot be the zero address. - `from` must have a balance of at least `amount`. - the caller must have allowance for ``from``'s tokens of at least `amount`."
      },
      "transferOwnership(address)": {
        "details": "Transfers ownership of the contract to a new account (`newOwner`). Can only be called by the current owner."
      },
      "upgradeTo(address)": {
        "details": "Upgrade the implementation of the proxy to `newImplementation`. Calls {_authorizeUpgrade}. Emits an {Upgraded} event."
      },
      "upgradeToAndCall(address,bytes)": {
        "details": "Upgrade the implementation of the proxy to `newImplementation`, and subsequently execute the function call encoded in `data`. Calls {_authorizeUpgrade}. Emits an {Upgraded} event."
      }
    },
    "version": 1
  },
  "userdoc": {
    "kind": "user",
    "methods": {},
    "version": 1
  }
}