{
  "contractName": "BrainCoin",
  "abi": [
    {
      "inputs": [],
      "stateMutability": "nonpayable",
      "type": "constructor"
    },
    {
      "anonymous": false,
      "inputs": [
        {
          "indexed": false,
          "internalType": "address",
          "name": "previousAdmin",
          "type": "address"
        },
        {
          "indexed": false,
          "internalType": "address",
          "name": "newAdmin",
          "type": "address"
        }
      ],
      "name": "AdminChanged",
      "type": "event"
    },
    {
      "anonymous": false,
      "inputs": [
        {
          "indexed": true,
          "internalType": "address",
          "name": "owner",
          "type": "address"
        },
        {
          "indexed": true,
          "internalType": "address",
          "name": "spender",
          "type": "address"
        },
        {
          "indexed": false,
          "internalType": "uint256",
          "name": "value",
          "type": "uint256"
        }
      ],
      "name": "Approval",
      "type": "event"
    },
    {
      "anonymous": false,
      "inputs": [
        {
          "indexed": true,
          "internalType": "address",
          "name": "beacon",
          "type": "address"
        }
      ],
      "name": "BeaconUpgraded",
      "type": "event"
    },
    {
      "anonymous": false,
      "inputs": [
        {
          "indexed": true,
          "internalType": "address",
          "name": "delegator",
          "type": "address"
        },
        {
          "indexed": true,
          "internalType": "address",
          "name": "fromDelegate",
          "type": "address"
        },
        {
          "indexed": true,
          "internalType": "address",
          "name": "toDelegate",
          "type": "address"
        }
      ],
      "name": "DelegateChanged",
      "type": "event"
    },
    {
      "anonymous": false,
      "inputs": [
        {
          "indexed": true,
          "internalType": "address",
          "name": "delegate",
          "type": "address"
        },
        {
          "indexed": false,
          "internalType": "uint256",
          "name": "previousBalance",
          "type": "uint256"
        },
        {
          "indexed": false,
          "internalType": "uint256",
          "name": "newBalance",
          "type": "uint256"
        }
      ],
      "name": "DelegateVotesChanged",
      "type": "event"
    },
    {
      "anonymous": false,
      "inputs": [
        {
          "indexed": false,
          "internalType": "uint8",
          "name": "version",
          "type": "uint8"
        }
      ],
      "name": "Initialized",
      "type": "event"
    },
    {
      "anonymous": false,
      "inputs": [
        {
          "indexed": true,
          "internalType": "address",
          "name": "previousOwner",
          "type": "address"
        },
        {
          "indexed": true,
          "internalType": "address",
          "name": "newOwner",
          "type": "address"
        }
      ],
      "name": "OwnershipTransferred",
      "type": "event"
    },
    {
      "anonymous": false,
      "inputs": [
        {
          "indexed": false,
          "internalType": "address",
          "name": "account",
          "type": "address"
        }
      ],
      "name": "Paused",
      "type": "event"
    },
    {
      "anonymous": false,
      "inputs": [
        {
          "indexed": false,
          "internalType": "uint256",
          "name": "id",
          "type": "uint256"
        }
      ],
      "name": "Snapshot",
      "type": "event"
    },
    {
      "anonymous": false,
      "inputs": [
        {
          "indexed": true,
          "internalType": "address",
          "name": "from",
          "type": "address"
        },
        {
          "indexed": true,
          "internalType": "address",
          "name": "to",
          "type": "address"
        },
        {
          "indexed": false,
          "internalType": "uint256",
          "name": "value",
          "type": "uint256"
        }
      ],
      "name": "Transfer",
      "type": "event"
    },
    {
      "anonymous": false,
      "inputs": [
        {
          "indexed": false,
          "internalType": "address",
          "name": "account",
          "type": "address"
        }
      ],
      "name": "Unpaused",
      "type": "event"
    },
    {
      "anonymous": false,
      "inputs": [
        {
          "indexed": true,
          "internalType": "address",
          "name": "implementation",
          "type": "address"
        }
      ],
      "name": "Upgraded",
      "type": "event"
    },
    {
      "inputs": [],
      "name": "DOMAIN_SEPARATOR",
      "outputs": [
        {
          "internalType": "bytes32",
          "name": "",
          "type": "bytes32"
        }
      ],
      "stateMutability": "view",
      "type": "function",
      "constant": true
    },
    {
      "inputs": [
        {
          "internalType": "address",
          "name": "owner",
          "type": "address"
        },
        {
          "internalType": "address",
          "name": "spender",
          "type": "address"
        }
      ],
      "name": "allowance",
      "outputs": [
        {
          "internalType": "uint256",
          "name": "",
          "type": "uint256"
        }
      ],
      "stateMutability": "view",
      "type": "function",
      "constant": true
    },
    {
      "inputs": [
        {
          "internalType": "address",
          "name": "spender",
          "type": "address"
        },
        {
          "internalType": "uint256",
          "name": "amount",
          "type": "uint256"
        }
      ],
      "name": "approve",
      "outputs": [
        {
          "internalType": "bool",
          "name": "",
          "type": "bool"
        }
      ],
      "stateMutability": "nonpayable",
      "type": "function"
    },
    {
      "inputs": [
        {
          "internalType": "address",
          "name": "account",
          "type": "address"
        }
      ],
      "name": "balanceOf",
      "outputs": [
        {
          "internalType": "uint256",
          "name": "",
          "type": "uint256"
        }
      ],
      "stateMutability": "view",
      "type": "function",
      "constant": true
    },
    {
      "inputs": [
        {
          "internalType": "address",
          "name": "account",
          "type": "address"
        },
        {
          "internalType": "uint256",
          "name": "snapshotId",
          "type": "uint256"
        }
      ],
      "name": "balanceOfAt",
      "outputs": [
        {
          "internalType": "uint256",
          "name": "",
          "type": "uint256"
        }
      ],
      "stateMutability": "view",
      "type": "function",
      "constant": true
    },
    {
      "inputs": [
        {
          "internalType": "uint256",
          "name": "amount",
          "type": "uint256"
        }
      ],
      "name": "burn",
      "outputs": [],
      "stateMutability": "nonpayable",
      "type": "function"
    },
    {
      "inputs": [
        {
          "internalType": "address",
          "name": "account",
          "type": "address"
        },
        {
          "internalType": "uint256",
          "name": "amount",
          "type": "uint256"
        }
      ],
      "name": "burnFrom",
      "outputs": [],
      "stateMutability": "nonpayable",
      "type": "function"
    },
    {
      "inputs": [
        {
          "internalType": "address",
          "name": "account",
          "type": "address"
        },
        {
          "internalType": "uint32",
          "name": "pos",
          "type": "uint32"
        }
      ],
      "name": "checkpoints",
      "outputs": [
        {
          "components": [
            {
              "internalType": "uint32",
              "name": "fromBlock",
              "type": "uint32"
            },
            {
              "internalType": "uint224",
              "name": "votes",
              "type": "uint224"
            }
          ],
          "internalType": "struct ERC20VotesUpgradeable.Checkpoint",
          "name": "",
          "type": "tuple"
        }
      ],
      "stateMutability": "view",
      "type": "function",
      "constant": true
    },
    {
      "inputs": [],
      "name": "decimals",
      "outputs": [
        {
          "internalType": "uint8",
          "name": "",
          "type": "uint8"
        }
      ],
      "stateMutability": "view",
      "type": "function",
      "constant": true
    },
    {
      "inputs": [
        {
          "internalType": "address",
          "name": "spender",
          "type": "address"
        },
        {
          "internalType": "uint256",
          "name": "subtractedValue",
          "type": "uint256"
        }
      ],
      "name": "decreaseAllowance",
      "outputs": [
        {
          "internalType": "bool",
          "name": "",
          "type": "bool"
        }
      ],
      "stateMutability": "nonpayable",
      "type": "function"
    },
    {
      "inputs": [
        {
          "internalType": "address",
          "name": "delegatee",
          "type": "address"
        }
      ],
      "name": "delegate",
      "outputs": [],
      "stateMutability": "nonpayable",
      "type": "function"
    },
    {
      "inputs": [
        {
          "internalType": "address",
          "name": "delegatee",
          "type": "address"
        },
        {
          "internalType": "uint256",
          "name": "nonce",
          "type": "uint256"
        },
        {
          "internalType": "uint256",
          "name": "expiry",
          "type": "uint256"
        },
        {
          "internalType": "uint8",
          "name": "v",
          "type": "uint8"
        },
        {
          "internalType": "bytes32",
          "name": "r",
          "type": "bytes32"
        },
        {
          "internalType": "bytes32",
          "name": "s",
          "type": "bytes32"
        }
      ],
      "name": "delegateBySig",
      "outputs": [],
      "stateMutability": "nonpayable",
      "type": "function"
    },
    {
      "inputs": [
        {
          "internalType": "address",
          "name": "account",
          "type": "address"
        }
      ],
      "name": "delegates",
      "outputs": [
        {
          "internalType": "address",
          "name": "",
          "type": "address"
        }
      ],
      "stateMutability": "view",
      "type": "function",
      "constant": true
    },
    {
      "inputs": [
        {
          "internalType": "uint256",
          "name": "blockNumber",
          "type": "uint256"
        }
      ],
      "name": "getPastTotalSupply",
      "outputs": [
        {
          "internalType": "uint256",
          "name": "",
          "type": "uint256"
        }
      ],
      "stateMutability": "view",
      "type": "function",
      "constant": true
    },
    {
      "inputs": [
        {
          "internalType": "address",
          "name": "account",
          "type": "address"
        },
        {
          "internalType": "uint256",
          "name": "blockNumber",
          "type": "uint256"
        }
      ],
      "name": "getPastVotes",
      "outputs": [
        {
          "internalType": "uint256",
          "name": "",
          "type": "uint256"
        }
      ],
      "stateMutability": "view",
      "type": "function",
      "constant": true
    },
    {
      "inputs": [
        {
          "internalType": "address",
          "name": "account",
          "type": "address"
        }
      ],
      "name": "getVotes",
      "outputs": [
        {
          "internalType": "uint256",
          "name": "",
          "type": "uint256"
        }
      ],
      "stateMutability": "view",
      "type": "function",
      "constant": true
    },
    {
      "inputs": [
        {
          "internalType": "address",
          "name": "spender",
          "type": "address"
        },
        {
          "internalType": "uint256",
          "name": "addedValue",
          "type": "uint256"
        }
      ],
      "name": "increaseAllowance",
      "outputs": [
        {
          "internalType": "bool",
          "name": "",
          "type": "bool"
        }
      ],
      "stateMutability": "nonpayable",
      "type": "function"
    },
    {
      "inputs": [],
      "name": "name",
      "outputs": [
        {
          "internalType": "string",
          "name": "",
          "type": "string"
        }
      ],
      "stateMutability": "view",
      "type": "function",
      "constant": true
    },
    {
      "inputs": [
        {
          "internalType": "address",
          "name": "owner",
          "type": "address"
        }
      ],
      "name": "nonces",
      "outputs": [
        {
          "internalType": "uint256",
          "name": "",
          "type": "uint256"
        }
      ],
      "stateMutability": "view",
      "type": "function",
      "constant": true
    },
    {
      "inputs": [
        {
          "internalType": "address",
          "name": "account",
          "type": "address"
        }
      ],
      "name": "numCheckpoints",
      "outputs": [
        {
          "internalType": "uint32",
          "name": "",
          "type": "uint32"
        }
      ],
      "stateMutability": "view",
      "type": "function",
      "constant": true
    },
    {
      "inputs": [],
      "name": "owner",
      "outputs": [
        {
          "internalType": "address",
          "name": "",
          "type": "address"
        }
      ],
      "stateMutability": "view",
      "type": "function",
      "constant": true
    },
    {
      "inputs": [],
      "name": "paused",
      "outputs": [
        {
          "internalType": "bool",
          "name": "",
          "type": "bool"
        }
      ],
      "stateMutability": "view",
      "type": "function",
      "constant": true
    },
    {
      "inputs": [
        {
          "internalType": "address",
          "name": "owner",
          "type": "address"
        },
        {
          "internalType": "address",
          "name": "spender",
          "type": "address"
        },
        {
          "internalType": "uint256",
          "name": "value",
          "type": "uint256"
        },
        {
          "internalType": "uint256",
          "name": "deadline",
          "type": "uint256"
        },
        {
          "internalType": "uint8",
          "name": "v",
          "type": "uint8"
        },
        {
          "internalType": "bytes32",
          "name": "r",
          "type": "bytes32"
        },
        {
          "internalType": "bytes32",
          "name": "s",
          "type": "bytes32"
        }
      ],
      "name": "permit",
      "outputs": [],
      "stateMutability": "nonpayable",
      "type": "function"
    },
    {
      "inputs": [],
      "name": "proxiableUUID",
      "outputs": [
        {
          "internalType": "bytes32",
          "name": "",
          "type": "bytes32"
        }
      ],
      "stateMutability": "view",
      "type": "function",
      "constant": true
    },
    {
      "inputs": [],
      "name": "renounceOwnership",
      "outputs": [],
      "stateMutability": "nonpayable",
      "type": "function"
    },
    {
      "inputs": [],
      "name": "symbol",
      "outputs": [
        {
          "internalType": "string",
          "name": "",
          "type": "string"
        }
      ],
      "stateMutability": "view",
      "type": "function",
      "constant": true
    },
    {
      "inputs": [],
      "name": "totalSupply",
      "outputs": [
        {
          "internalType": "uint256",
          "name": "",
          "type": "uint256"
        }
      ],
      "stateMutability": "view",
      "type": "function",
      "constant": true
    },
    {
      "inputs": [
        {
          "internalType": "uint256",
          "name": "snapshotId",
          "type": "uint256"
        }
      ],
      "name": "totalSupplyAt",
      "outputs": [
        {
          "internalType": "uint256",
          "name": "",
          "type": "uint256"
        }
      ],
      "stateMutability": "view",
      "type": "function",
      "constant": true
    },
    {
      "inputs": [
        {
          "internalType": "address",
          "name": "to",
          "type": "address"
        },
        {
          "internalType": "uint256",
          "name": "amount",
          "type": "uint256"
        }
      ],
      "name": "transfer",
      "outputs": [
        {
          "internalType": "bool",
          "name": "",
          "type": "bool"
        }
      ],
      "stateMutability": "nonpayable",
      "type": "function"
    },
    {
      "inputs": [
        {
          "internalType": "address",
          "name": "from",
          "type": "address"
        },
        {
          "internalType": "address",
          "name": "to",
          "type": "address"
        },
        {
          "internalType": "uint256",
          "name": "amount",
          "type": "uint256"
        }
      ],
      "name": "transferFrom",
      "outputs": [
        {
          "internalType": "bool",
          "name": "",
          "type": "bool"
        }
      ],
      "stateMutability": "nonpayable",
      "type": "function"
    },
    {
      "inputs": [
        {
          "internalType": "address",
          "name": "newOwner",
          "type": "address"
        }
      ],
      "name": "transferOwnership",
      "outputs": [],
      "stateMutability": "nonpayable",
      "type": "function"
    },
    {
      "inputs": [
        {
          "internalType": "address",
          "name": "newImplementation",
          "type": "address"
        }
      ],
      "name": "upgradeTo",
      "outputs": [],
      "stateMutability": "nonpayable",
      "type": "function"
    },
    {
      "inputs": [
        {
          "internalType": "address",
          "name": "newImplementation",
          "type": "address"
        },
        {
          "internalType": "bytes",
          "name": "data",
          "type": "bytes"
        }
      ],
      "name": "upgradeToAndCall",
      "outputs": [],
      "stateMutability": "payable",
      "type": "function",
      "payable": true
    },
    {
      "inputs": [],
      "name": "initialize",
      "outputs": [],
      "stateMutability": "nonpayable",
      "type": "function"
    },
    {
      "inputs": [],
      "name": "snapshot",
      "outputs": [],
      "stateMutability": "nonpayable",
      "type": "function"
    },
    {
      "inputs": [],
      "name": "pause",
      "outputs": [],
      "stateMutability": "nonpayable",
      "type": "function"
    },
    {
      "inputs": [],
      "name": "unpause",
      "outputs": [],
      "stateMutability": "nonpayable",
      "type": "function"
    }
  ],
  "bytecode": "0x60a0604052306080523480156200001557600080fd5b506200002062000026565b620000e8565b600054610100900460ff1615620000935760405162461bcd60e51b815260206004820152602760248201527f496e697469616c697a61626c653a20636f6e747261637420697320696e697469604482015266616c697a696e6760c81b606482015260840160405180910390fd5b60005460ff9081161015620000e6576000805460ff191660ff9081179091556040519081527f7f26b83ff96e1f2b6a682f133852f6798a09c465da95921460cefb38474024989060200160405180910390a15b565b60805161357362000120600039600081816107da01528181610823015281816109cd01528181610a0d0152610aa001526135736000f3fe60806040526004361061021a5760003560e01c806370a08231116101235780639711715a116100ab578063c3cda5201161006f578063c3cda52014610625578063d505accf14610645578063dd62ed3e14610665578063f1127ed814610685578063f2fde38b146106cf57600080fd5b80639711715a14610590578063981b24d0146105a55780639ab24eb0146105c5578063a457c2d7146105e5578063a9059cbb1461060557600080fd5b80638129fc1c116100f25780638129fc1c146105135780638456cb59146105285780638da5cb5b1461053d5780638e539e8c1461055b57806395d89b411461057b57600080fd5b806370a0823114610488578063715018a6146104be57806379cc6790146104d35780637ecebe00146104f357600080fd5b80633f4ba83a116101a657806352d1902d1161017557806352d1902d146103b4578063587cde1e146103c95780635c19a95c1461041b5780635c975abb1461043b5780636fcfff451461045357600080fd5b80633f4ba83a1461034c57806342966c68146103615780634ee2cd7e146103815780634f1ef286146103a157600080fd5b8063313ce567116101ed578063313ce567146102b95780633644e515146102d55780633659cfe6146102ea578063395093511461030c5780633a46b1a81461032c57600080fd5b806306fdde031461021f578063095ea7b31461024a57806318160ddd1461027a57806323b872dd14610299575b600080fd5b34801561022b57600080fd5b506102346106ef565b6040516102419190612df8565b60405180910390f35b34801561025657600080fd5b5061026a610265366004612e42565b610781565b6040519015158152602001610241565b34801561028657600080fd5b506035545b604051908152602001610241565b3480156102a557600080fd5b5061026a6102b4366004612e6c565b61079b565b3480156102c557600080fd5b5060405160128152602001610241565b3480156102e157600080fd5b5061028b6107c1565b3480156102f657600080fd5b5061030a610305366004612ea8565b6107d0565b005b34801561031857600080fd5b5061026a610327366004612e42565b6108b8565b34801561033857600080fd5b5061028b610347366004612e42565b6108da565b34801561035857600080fd5b5061030a61094e565b34801561036d57600080fd5b5061030a61037c366004612ec3565b610960565b34801561038d57600080fd5b5061028b61039c366004612e42565b61096a565b61030a6103af366004612ef2565b6109c3565b3480156103c057600080fd5b5061028b610a93565b3480156103d557600080fd5b506104036103e4366004612ea8565b6001600160a01b03908116600090815261019460205260409020541690565b6040516001600160a01b039091168152602001610241565b34801561042757600080fd5b5061030a610436366004612ea8565b610b46565b34801561044757600080fd5b5060fb5460ff1661026a565b34801561045f57600080fd5b5061047361046e366004612ea8565b610b50565b60405163ffffffff9091168152602001610241565b34801561049457600080fd5b5061028b6104a3366004612ea8565b6001600160a01b031660009081526033602052604090205490565b3480156104ca57600080fd5b5061030a610b73565b3480156104df57600080fd5b5061030a6104ee366004612e42565b610b85565b3480156104ff57600080fd5b5061028b61050e366004612ea8565b610b9a565b34801561051f57600080fd5b5061030a610bb9565b34801561053457600080fd5b5061030a610d87565b34801561054957600080fd5b5060c9546001600160a01b0316610403565b34801561056757600080fd5b5061028b610576366004612ec3565b610d97565b34801561058757600080fd5b50610234610df4565b34801561059c57600080fd5b5061030a610e03565b3480156105b157600080fd5b5061028b6105c0366004612ec3565b610e13565b3480156105d157600080fd5b5061028b6105e0366004612ea8565b610e3e565b3480156105f157600080fd5b5061026a610600366004612e42565b610ec7565b34801561061157600080fd5b5061026a610620366004612e42565b610f4d565b34801561063157600080fd5b5061030a610640366004612fc5565b610f5b565b34801561065157600080fd5b5061030a61066036600461301d565b611091565b34801561067157600080fd5b5061028b610680366004613087565b6111f5565b34801561069157600080fd5b506106a56106a03660046130ba565b611220565b60408051825163ffffffff1681526020928301516001600160e01b03169281019290925201610241565b3480156106db57600080fd5b5061030a6106ea366004612ea8565b6112a5565b6060603680546106fe906130fa565b80601f016020809104026020016040519081016040528092919081815260200182805461072a906130fa565b80156107775780601f1061074c57610100808354040283529160200191610777565b820191906000526020600020905b81548152906001019060200180831161075a57829003601f168201915b5050505050905090565b60003361078f81858561131b565b60019150505b92915050565b6000336107a985828561143f565b6107b48585856114b9565b60019150505b9392505050565b60006107cb611675565b905090565b6001600160a01b037f00000000000000000000000000000000000000000000000000000000000000001630036108215760405162461bcd60e51b81526004016108189061312e565b60405180910390fd5b7f00000000000000000000000000000000000000000000000000000000000000006001600160a01b031661086a6000805160206134f7833981519152546001600160a01b031690565b6001600160a01b0316146108905760405162461bcd60e51b81526004016108189061317a565b610899816116f2565b604080516000808252602082019092526108b5918391906116fa565b50565b60003361078f8185856108cb83836111f5565b6108d591906131dc565b61131b565b600043821061092b5760405162461bcd60e51b815260206004820152601f60248201527f4552433230566f7465733a20626c6f636b206e6f7420796574206d696e6564006044820152606401610818565b6001600160a01b0383166000908152610195602052604090206107ba908361186a565b610956611961565b61095e6119bb565b565b6108b53382611a0d565b6001600160a01b038216600090815260976020526040812081908190610991908590611a17565b91509150816109b8576001600160a01b0385166000908152603360205260409020546109ba565b805b95945050505050565b6001600160a01b037f0000000000000000000000000000000000000000000000000000000000000000163003610a0b5760405162461bcd60e51b81526004016108189061312e565b7f00000000000000000000000000000000000000000000000000000000000000006001600160a01b0316610a546000805160206134f7833981519152546001600160a01b031690565b6001600160a01b031614610a7a5760405162461bcd60e51b81526004016108189061317a565b610a83826116f2565b610a8f828260016116fa565b5050565b6000306001600160a01b037f00000000000000000000000000000000000000000000000000000000000000001614610b335760405162461bcd60e51b815260206004820152603860248201527f555550535570677261646561626c653a206d757374206e6f742062652063616c60448201527f6c6564207468726f7567682064656c656761746563616c6c00000000000000006064820152608401610818565b506000805160206134f783398151915290565b6108b53382611b13565b6001600160a01b0381166000908152610195602052604081205461079590611b8e565b610b7b611961565b61095e6000611bf7565b610b9082338361143f565b610a8f8282611a0d565b6001600160a01b03811660009081526101616020526040812054610795565b600054610100900460ff1615808015610bd95750600054600160ff909116105b80610bf35750303b158015610bf3575060005460ff166001145b610c565760405162461bcd60e51b815260206004820152602e60248201527f496e697469616c697a61626c653a20636f6e747261637420697320616c72656160448201526d191e481a5b9a5d1a585b1a5e995960921b6064820152608401610818565b6000805460ff191660011790558015610c79576000805461ff0019166101001790555b610cc160405180604001604052806009815260200168213930b4b721b7b4b760b91b81525060405180604001604052806005815260200164213930b4b760d91b815250611c49565b610cc9611c7a565b610cd1611c7a565b610cd9611ca1565b610ce1611cd0565b610d0b60405180604001604052806009815260200168213930b4b721b7b4b760b91b815250611cff565b610d13611c7a565b610d1b611c7a565b610d3f33610d2b6012600a6132cb565b610d3a9064e8d4a510006132da565b611d49565b80156108b5576000805461ff0019169055604051600181527f7f26b83ff96e1f2b6a682f133852f6798a09c465da95921460cefb38474024989060200160405180910390a150565b610d8f611961565b61095e611d53565b6000438210610de85760405162461bcd60e51b815260206004820152601f60248201527f4552433230566f7465733a20626c6f636b206e6f7420796574206d696e6564006044820152606401610818565b6107956101968361186a565b6060603780546106fe906130fa565b610e0b611961565b6108b5611d90565b6000806000610e23846098611a17565b9150915081610e3457603554610e36565b805b949350505050565b6001600160a01b038116600090815261019560205260408120548015610eb4576001600160a01b038316600090815261019560205260409020610e826001836132f1565b81548110610e9257610e92613304565b60009182526020909120015464010000000090046001600160e01b0316610eb7565b60005b6001600160e01b03169392505050565b60003381610ed582866111f5565b905083811015610f355760405162461bcd60e51b815260206004820152602560248201527f45524332303a2064656372656173656420616c6c6f77616e63652062656c6f77604482015264207a65726f60d81b6064820152608401610818565b610f42828686840361131b565b506001949350505050565b60003361078f8185856114b9565b83421115610fab5760405162461bcd60e51b815260206004820152601d60248201527f4552433230566f7465733a207369676e617475726520657870697265640000006044820152606401610818565b604080517fe48329057bfd03d55e49b547132e39cffd9c1820ad7b9d4c5307691425d15adf60208201526001600160a01b0388169181019190915260608101869052608081018590526000906110259061101d9060a00160405160208183030381529060405280519060200120611dea565b858585611e38565b905061103081611e60565b861461107e5760405162461bcd60e51b815260206004820152601960248201527f4552433230566f7465733a20696e76616c6964206e6f6e6365000000000000006044820152606401610818565b6110888188611b13565b50505050505050565b834211156110e15760405162461bcd60e51b815260206004820152601d60248201527f45524332305065726d69743a206578706972656420646561646c696e650000006044820152606401610818565b60007f6e71edae12b1b97f4d1f60370fef10105fa2faae0126114a169c64845d6126c98888886111108c611e60565b6040805160208101969096526001600160a01b0394851690860152929091166060840152608083015260a082015260c0810186905260e001604051602081830303815290604052805190602001209050600061116b82611dea565b9050600061117b82878787611e38565b9050896001600160a01b0316816001600160a01b0316146111de5760405162461bcd60e51b815260206004820152601e60248201527f45524332305065726d69743a20696e76616c6964207369676e617475726500006044820152606401610818565b6111e98a8a8a61131b565b50505050505050505050565b6001600160a01b03918216600090815260346020908152604080832093909416825291909152205490565b60408051808201909152600080825260208201526001600160a01b038316600090815261019560205260409020805463ffffffff841690811061126557611265613304565b60009182526020918290206040805180820190915291015463ffffffff8116825264010000000090046001600160e01b0316918101919091529392505050565b6112ad611961565b6001600160a01b0381166113125760405162461bcd60e51b815260206004820152602660248201527f4f776e61626c653a206e6577206f776e657220697320746865207a65726f206160448201526564647265737360d01b6064820152608401610818565b6108b581611bf7565b6001600160a01b03831661137d5760405162461bcd60e51b8152602060048201526024808201527f45524332303a20617070726f76652066726f6d20746865207a65726f206164646044820152637265737360e01b6064820152608401610818565b6001600160a01b0382166113de5760405162461bcd60e51b815260206004820152602260248201527f45524332303a20617070726f766520746f20746865207a65726f206164647265604482015261737360f01b6064820152608401610818565b6001600160a01b0383811660008181526034602090815260408083209487168084529482529182902085905590518481527f8c5be1e5ebec7d5bd14f71427d1e84f3dd0314c0f7b2291e5b200ac8c7c3b925910160405180910390a3505050565b600061144b84846111f5565b905060001981146114b357818110156114a65760405162461bcd60e51b815260206004820152601d60248201527f45524332303a20696e73756666696369656e7420616c6c6f77616e63650000006044820152606401610818565b6114b3848484840361131b565b50505050565b6001600160a01b03831661151d5760405162461bcd60e51b815260206004820152602560248201527f45524332303a207472616e736665722066726f6d20746865207a65726f206164604482015264647265737360d81b6064820152608401610818565b6001600160a01b03821661157f5760405162461bcd60e51b815260206004820152602360248201527f45524332303a207472616e7366657220746f20746865207a65726f206164647260448201526265737360e81b6064820152608401610818565b61158a838383611e89565b6001600160a01b038316600090815260336020526040902054818110156116025760405162461bcd60e51b815260206004820152602660248201527f45524332303a207472616e7366657220616d6f756e7420657863656564732062604482015265616c616e636560d01b6064820152608401610818565b6001600160a01b0380851660008181526033602052604080822086860390559286168082529083902080548601905591517fddf252ad1be2c89b69c2b068fc378daa952ba7f163c4a11628f55a4df523b3ef906116629086815260200190565b60405180910390a36114b3848484611e9c565b60006107cb7f8b73c3c69bb8fe3d512ecc4cf759cc79239f7b179b0ffacaa9a75d522b39400f6116a561012d5490565b61012e546040805160208101859052908101839052606081018290524660808201523060a082015260009060c0016040516020818303038152906040528051906020012090509392505050565b6108b5611961565b7f4910fdfa16fed3260ed0e7147f7cc6da11a60208b5b9406d12a635614ffd91435460ff16156117325761172d83611ea7565b505050565b826001600160a01b03166352d1902d6040518163ffffffff1660e01b8152600401602060405180830381865afa92505050801561178c575060408051601f3d908101601f191682019092526117899181019061331a565b60015b6117ef5760405162461bcd60e51b815260206004820152602e60248201527f45524331393637557067726164653a206e657720696d706c656d656e7461746960448201526d6f6e206973206e6f74205555505360901b6064820152608401610818565b6000805160206134f7833981519152811461185e5760405162461bcd60e51b815260206004820152602960248201527f45524331393637557067726164653a20756e737570706f727465642070726f786044820152681a58589b195555525160ba1b6064820152608401610818565b5061172d838383611f43565b8154600090818160058111156118c457600061188584611f68565b61188f90856132f1565b600088815260209020909150869082015463ffffffff1611156118b4578091506118c2565b6118bf8160016131dc565b92505b505b808210156119115760006118d88383612050565b600088815260209020909150869082015463ffffffff1611156118fd5780915061190b565b6119088160016131dc565b92505b506118c4565b801561194b57611934866119266001846132f1565b600091825260209091200190565b5464010000000090046001600160e01b031661194e565b60005b6001600160e01b03169695505050505050565b60c9546001600160a01b0316331461095e5760405162461bcd60e51b815260206004820181905260248201527f4f776e61626c653a2063616c6c6572206973206e6f7420746865206f776e65726044820152606401610818565b6119c361206b565b60fb805460ff191690557f5db9ee0a495bf2e6ff9c91a7834c1ba4fdd244a5e8aa4e537bd38aeae4b073aa335b6040516001600160a01b03909116815260200160405180910390a1565b610a8f82826120b4565b60008060008411611a635760405162461bcd60e51b815260206004820152601660248201527504552433230536e617073686f743a20696420697320360541b6044820152606401610818565b611a6b6120cd565b841115611aba5760405162461bcd60e51b815260206004820152601d60248201527f4552433230536e617073686f743a206e6f6e6578697374656e742069640000006044820152606401610818565b6000611ac684866120d8565b84549091508103611ade576000809250925050611b0c565b6001846001018281548110611af557611af5613304565b90600052602060002001549250925050611b0c565b505b9250929050565b6001600160a01b0382811660008181526101946020818152604080842080546033845282862054949093528787166001600160a01b03198416811790915590519190951694919391928592917f3134e8a2e6d97e929a7e54011ea5485d7d196dd5f0ba4d4ef95803e8e3fc257f9190a46114b3828483612177565b600063ffffffff821115611bf35760405162461bcd60e51b815260206004820152602660248201527f53616665436173743a2076616c756520646f65736e27742066697420696e203360448201526532206269747360d01b6064820152608401610818565b5090565b60c980546001600160a01b038381166001600160a01b0319831681179093556040519116919082907f8be0079c531659141344cd1fd0a4f28419497f9722a3daafe3b4186f6b6457e090600090a35050565b600054610100900460ff16611c705760405162461bcd60e51b815260040161081890613333565b610a8f82826122b6565b600054610100900460ff1661095e5760405162461bcd60e51b815260040161081890613333565b600054610100900460ff16611cc85760405162461bcd60e51b815260040161081890613333565b61095e6122f6565b600054610100900460ff16611cf75760405162461bcd60e51b815260040161081890613333565b61095e612326565b600054610100900460ff16611d265760405162461bcd60e51b815260040161081890613333565b6108b581604051806040016040528060018152602001603160f81b815250612359565b610a8f828261239c565b611d5b612427565b60fb805460ff191660011790557f62e78cea01bee320cd4e420270b5ea74000d11b0c9f74754ebdbfc544b05a2586119f03390565b6000611da0609a80546001019055565b6000611daa6120cd565b90507f8030e83b04d87bef53480e26263266d6ca66863aa8506aca6f2559d18aa1cb6781604051611ddd91815260200190565b60405180910390a1919050565b6000610795611df7611675565b8360405161190160f01b6020820152602281018390526042810182905260009060620160405160208183030381529060405280519060200120905092915050565b6000806000611e498787878761246d565b91509150611e5681612531565b5095945050505050565b6001600160a01b0381166000908152610161602052604090208054600181018255905b50919050565b611e91612427565b61172d83838361267b565b61172d8383836126c3565b6001600160a01b0381163b611f145760405162461bcd60e51b815260206004820152602d60248201527f455243313936373a206e657720696d706c656d656e746174696f6e206973206e60448201526c1bdd08184818dbdb9d1c9858dd609a1b6064820152608401610818565b6000805160206134f783398151915280546001600160a01b0319166001600160a01b0392909216919091179055565b611f4c836126f6565b600082511180611f595750805b1561172d576114b38383612736565b600081600003611f7a57506000919050565b60006001611f8784612821565b901c6001901b90506001818481611fa057611fa061337e565b048201901c90506001818481611fb857611fb861337e565b048201901c90506001818481611fd057611fd061337e565b048201901c90506001818481611fe857611fe861337e565b048201901c905060018184816120005761200061337e565b048201901c905060018184816120185761201861337e565b048201901c905060018184816120305761203061337e565b048201901c90506107ba8182858161204a5761204a61337e565b046128b5565b600061205f6002848418613394565b6107ba908484166131dc565b60fb5460ff1661095e5760405162461bcd60e51b815260206004820152601460248201527314185d5cd8589b194e881b9bdd081c185d5cd95960621b6044820152606401610818565b6120be82826128cb565b6114b3610196612a1283612a1e565b60006107cb609a5490565b815460009081036120eb57506000610795565b82546000905b808210156121385760006121058383612050565b6000878152602090209091508590820154111561212457809150612132565b61212f8160016131dc565b92505b506120f1565b600082118015612156575083612153866119266001866132f1565b54145b1561216f576121666001836132f1565b92505050610795565b509050610795565b816001600160a01b0316836001600160a01b0316141580156121995750600081115b1561172d576001600160a01b03831615612228576001600160a01b03831660009081526101956020526040812081906121d590612a1285612a1e565b91509150846001600160a01b03167fdec2bacdd2f05b59de34da9b523dff8be42e5e38e818c82fdb0bae774387a724838360405161221d929190918252602082015260400190565b60405180910390a250505b6001600160a01b0382161561172d576001600160a01b038216600090815261019560205260408120819061225f90612b7285612a1e565b91509150836001600160a01b03167fdec2bacdd2f05b59de34da9b523dff8be42e5e38e818c82fdb0bae774387a72483836040516122a7929190918252602082015260400190565b60405180910390a25050505050565b600054610100900460ff166122dd5760405162461bcd60e51b815260040161081890613333565b60366122e98382613404565b50603761172d8282613404565b600054610100900460ff1661231d5760405162461bcd60e51b815260040161081890613333565b61095e33611bf7565b600054610100900460ff1661234d5760405162461bcd60e51b815260040161081890613333565b60fb805460ff19169055565b600054610100900460ff166123805760405162461bcd60e51b815260040161081890613333565b81516020928301208151919092012061012d9190915561012e55565b6123a68282612b7e565b6035546001600160e01b0310156124185760405162461bcd60e51b815260206004820152603060248201527f4552433230566f7465733a20746f74616c20737570706c79207269736b73206f60448201526f766572666c6f77696e6720766f74657360801b6064820152608401610818565b6114b3610196612b7283612a1e565b60fb5460ff161561095e5760405162461bcd60e51b815260206004820152601060248201526f14185d5cd8589b194e881c185d5cd95960821b6044820152606401610818565b6000807f7fffffffffffffffffffffffffffffff5d576e7357a4501ddfe92f46681b20a08311156124a45750600090506003612528565b6040805160008082526020820180845289905260ff881692820192909252606081018690526080810185905260019060a0016020604051602081039080840390855afa1580156124f8573d6000803e3d6000fd5b5050604051601f1901519150506001600160a01b03811661252157600060019250925050612528565b9150600090505b94509492505050565b6000816004811115612545576125456134c4565b0361254d5750565b6001816004811115612561576125616134c4565b036125ae5760405162461bcd60e51b815260206004820152601860248201527f45434453413a20696e76616c6964207369676e617475726500000000000000006044820152606401610818565b60028160048111156125c2576125c26134c4565b0361260f5760405162461bcd60e51b815260206004820152601f60248201527f45434453413a20696e76616c6964207369676e6174757265206c656e677468006044820152606401610818565b6003816004811115612623576126236134c4565b036108b55760405162461bcd60e51b815260206004820152602260248201527f45434453413a20696e76616c6964207369676e6174757265202773272076616c604482015261756560f01b6064820152608401610818565b6001600160a01b03831661269a5761269282612c53565b61172d612c86565b6001600160a01b0382166126b15761269283612c53565b6126ba83612c53565b61172d82612c53565b6001600160a01b038381166000908152610194602052604080822054858416835291205461172d92918216911683612177565b6126ff81611ea7565b6040516001600160a01b038216907fbc7cd75a20ee27fd9adebab32041f755214dbc6bffa90cc0225b39da2e5c2d3b90600090a250565b60606001600160a01b0383163b61279e5760405162461bcd60e51b815260206004820152602660248201527f416464726573733a2064656c65676174652063616c6c20746f206e6f6e2d636f6044820152651b9d1c9858dd60d21b6064820152608401610818565b600080846001600160a01b0316846040516127b991906134da565b600060405180830381855af49150503d80600081146127f4576040519150601f19603f3d011682016040523d82523d6000602084013e6127f9565b606091505b50915091506109ba828260405180606001604052806027815260200161351760279139612c94565b600080608083901c1561283657608092831c92015b604083901c1561284857604092831c92015b602083901c1561285a57602092831c92015b601083901c1561286c57601092831c92015b600883901c1561287e57600892831c92015b600483901c1561289057600492831c92015b600283901c156128a257600292831c92015b600183901c156107955760010192915050565b60008183106128c457816107ba565b5090919050565b6001600160a01b03821661292b5760405162461bcd60e51b815260206004820152602160248201527f45524332303a206275726e2066726f6d20746865207a65726f206164647265736044820152607360f81b6064820152608401610818565b61293782600083611e89565b6001600160a01b038216600090815260336020526040902054818110156129ab5760405162461bcd60e51b815260206004820152602260248201527f45524332303a206275726e20616d6f756e7420657863656564732062616c616e604482015261636560f01b6064820152608401610818565b6001600160a01b03831660008181526033602090815260408083208686039055603580548790039055518581529192917fddf252ad1be2c89b69c2b068fc378daa952ba7f163c4a11628f55a4df523b3ef910160405180910390a361172d83600084611e9c565b60006107ba82846132f1565b82546000908190818115612a6b57612a3b876119266001856132f1565b60408051808201909152905463ffffffff8116825264010000000090046001600160e01b03166020820152612a80565b60408051808201909152600080825260208201525b905080602001516001600160e01b03169350612aa084868863ffffffff16565b9250600082118015612ab85750805163ffffffff1643145b15612afd57612ac683612cad565b612ad5886119266001866132f1565b80546001600160e01b03929092166401000000000263ffffffff909216919091179055612b68565b866040518060400160405280612b1243611b8e565b63ffffffff168152602001612b2686612cad565b6001600160e01b0390811690915282546001810184556000938452602093849020835194909301519091166401000000000263ffffffff909316929092179101555b5050935093915050565b60006107ba82846131dc565b6001600160a01b038216612bd45760405162461bcd60e51b815260206004820152601f60248201527f45524332303a206d696e7420746f20746865207a65726f2061646472657373006044820152606401610818565b612be060008383611e89565b8060356000828254612bf291906131dc565b90915550506001600160a01b0382166000818152603360209081526040808320805486019055518481527fddf252ad1be2c89b69c2b068fc378daa952ba7f163c4a11628f55a4df523b3ef910160405180910390a3610a8f60008383611e9c565b6001600160a01b03811660009081526097602090815260408083206033909252909120546108b59190612d16565b612d16565b61095e6098612c8160355490565b60608315612ca35750816107ba565b6107ba8383612d60565b60006001600160e01b03821115611bf35760405162461bcd60e51b815260206004820152602760248201527f53616665436173743a2076616c756520646f65736e27742066697420696e20326044820152663234206269747360c81b6064820152608401610818565b6000612d206120cd565b905080612d2c84612d8a565b101561172d578254600180820185556000858152602080822090930193909355938401805494850181558252902090910155565b815115612d705781518083602001fd5b8060405162461bcd60e51b81526004016108189190612df8565b80546000908103612d9d57506000919050565b81548290612dad906001906132f1565b81548110612dbd57612dbd613304565b90600052602060002001549050919050565b919050565b60005b83811015612def578181015183820152602001612dd7565b50506000910152565b6020815260008251806020840152612e17816040850160208701612dd4565b601f01601f19169190910160400192915050565b80356001600160a01b0381168114612dcf57600080fd5b60008060408385031215612e5557600080fd5b612e5e83612e2b565b946020939093013593505050565b600080600060608486031215612e8157600080fd5b612e8a84612e2b565b9250612e9860208501612e2b565b9150604084013590509250925092565b600060208284031215612eba57600080fd5b6107ba82612e2b565b600060208284031215612ed557600080fd5b5035919050565b634e487b7160e01b600052604160045260246000fd5b60008060408385031215612f0557600080fd5b612f0e83612e2b565b9150602083013567ffffffffffffffff80821115612f2b57600080fd5b818501915085601f830112612f3f57600080fd5b813581811115612f5157612f51612edc565b604051601f8201601f19908116603f01168101908382118183101715612f7957612f79612edc565b81604052828152886020848701011115612f9257600080fd5b8260208601602083013760006020848301015280955050505050509250929050565b803560ff81168114612dcf57600080fd5b60008060008060008060c08789031215612fde57600080fd5b612fe787612e2b565b9550602087013594506040870135935061300360608801612fb4565b92506080870135915060a087013590509295509295509295565b600080600080600080600060e0888a03121561303857600080fd5b61304188612e2b565b965061304f60208901612e2b565b9550604088013594506060880135935061306b60808901612fb4565b925060a0880135915060c0880135905092959891949750929550565b6000806040838503121561309a57600080fd5b6130a383612e2b565b91506130b160208401612e2b565b90509250929050565b600080604083850312156130cd57600080fd5b6130d683612e2b565b9150602083013563ffffffff811681146130ef57600080fd5b809150509250929050565b600181811c9082168061310e57607f821691505b602082108103611e8357634e487b7160e01b600052602260045260246000fd5b6020808252602c908201527f46756e6374696f6e206d7573742062652063616c6c6564207468726f7567682060408201526b19195b1959d85d1958d85b1b60a21b606082015260800190565b6020808252602c908201527f46756e6374696f6e206d7573742062652063616c6c6564207468726f7567682060408201526b6163746976652070726f787960a01b606082015260800190565b634e487b7160e01b600052601160045260246000fd5b80820180821115610795576107956131c6565b600181815b80851115611b0a578160001904821115613210576132106131c6565b8085161561321d57918102915b93841c93908002906131f4565b60008261323957506001610795565b8161324657506000610795565b816001811461325c576002811461326657613282565b6001915050610795565b60ff841115613277576132776131c6565b50506001821b610795565b5060208310610133831016604e8410600b84101617156132a5575081810a610795565b6132af83836131ef565b80600019048211156132c3576132c36131c6565b029392505050565b60006107ba60ff84168361322a565b8082028115828204841417610795576107956131c6565b81810381811115610795576107956131c6565b634e487b7160e01b600052603260045260246000fd5b60006020828403121561332c57600080fd5b5051919050565b6020808252602b908201527f496e697469616c697a61626c653a20636f6e7472616374206973206e6f74206960408201526a6e697469616c697a696e6760a81b606082015260800190565b634e487b7160e01b600052601260045260246000fd5b6000826133b157634e487b7160e01b600052601260045260246000fd5b500490565b601f82111561172d57600081815260208120601f850160051c810160208610156133dd5750805b601f850160051c820191505b818110156133fc578281556001016133e9565b505050505050565b815167ffffffffffffffff81111561341e5761341e612edc565b6134328161342c84546130fa565b846133b6565b602080601f831160018114613467576000841561344f5750858301515b600019600386901b1c1916600185901b1785556133fc565b600085815260208120601f198616915b8281101561349657888601518255948401946001909101908401613477565b50858210156134b45787850151600019600388901b60f8161c191681555b5050505050600190811b01905550565b634e487b7160e01b600052602160045260246000fd5b600082516134ec818460208701612dd4565b919091019291505056fe360894a13ba1a3210667c828492db98dca3e2076cc3735a920a3ca505d382bbc416464726573733a206c6f772d6c6576656c2064656c65676174652063616c6c206661696c6564a2646970667358221220fc4e36086495018ce05bbc439f73a3dda61cc9213f6ae3a32dd4e9ed34b4b8fa64736f6c63430008130033",
  "immutableReferences": {
    "798": [
      {
        "length": 32,
        "start": 2010
      },
      {
        "length": 32,
        "start": 2083
      },
      {
        "length": 32,
        "start": 2509
      },
      {
        "length": 32,
        "start": 2573
      },
      {
        "length": 32,
        "start": 2720
      }
    ]
  },
  "source": "// SPDX-License-Identifier: MIT\npragma solidity ^0.8.9;\n\nimport \"@openzeppelin/contracts-upgradeable/token/ERC20/ERC20Upgradeable.sol\";\nimport \"@openzeppelin/contracts-upgradeable/token/ERC20/extensions/ERC20BurnableUpgradeable.sol\";\nimport \"@openzeppelin/contracts-upgradeable/token/ERC20/extensions/ERC20SnapshotUpgradeable.sol\";\nimport \"@openzeppelin/contracts-upgradeable/access/OwnableUpgradeable.sol\";\nimport \"@openzeppelin/contracts-upgradeable/security/PausableUpgradeable.sol\";\nimport \"@openzeppelin/contracts-upgradeable/token/ERC20/extensions/draft-ERC20PermitUpgradeable.sol\";\nimport \"@openzeppelin/contracts-upgradeable/token/ERC20/extensions/ERC20VotesUpgradeable.sol\";\nimport \"@openzeppelin/contracts-upgradeable/proxy/utils/Initializable.sol\";\nimport \"@openzeppelin/contracts-upgradeable/proxy/utils/UUPSUpgradeable.sol\";\n\n/// @custom:security-contact security@braincargo.com\ncontract BrainCoin is Initializable, ERC20Upgradeable, ERC20BurnableUpgradeable, ERC20SnapshotUpgradeable, OwnableUpgradeable, PausableUpgradeable, ERC20PermitUpgradeable, ERC20VotesUpgradeable, UUPSUpgradeable {\n    /// @custom:oz-upgrades-unsafe-allow constructor\n    constructor() {\n        _disableInitializers();\n    }\n\n    function initialize() initializer public {\n        __ERC20_init(\"BrainCoin\", \"Brain\");\n        __ERC20Burnable_init();\n        __ERC20Snapshot_init();\n        __Ownable_init();\n        __Pausable_init();\n        __ERC20Permit_init(\"BrainCoin\");\n        __ERC20Votes_init();\n        __UUPSUpgradeable_init();\n\n        _mint(msg.sender, 1000000000000 * 10 ** decimals());\n    }\n\n    function snapshot() public onlyOwner {\n        _snapshot();\n    }\n\n    function pause() public onlyOwner {\n        _pause();\n    }\n\n    function unpause() public onlyOwner {\n        _unpause();\n    }\n\n    function _beforeTokenTransfer(address from, address to, uint256 amount)\n        internal\n        whenNotPaused\n        override(ERC20Upgradeable, ERC20SnapshotUpgradeable)\n    {\n        super._beforeTokenTransfer(from, to, amount);\n    }\n\n    function _authorizeUpgrade(address newImplementation)\n        internal\n        onlyOwner\n        override\n    {}\n\n    // The following functions are overrides required by Solidity.\n\n    function _afterTokenTransfer(address from, address to, uint256 amount)\n        internal\n        override(ERC20Upgradeable, ERC20VotesUpgradeable)\n    {\n        super._afterTokenTransfer(from, to, amount);\n    }\n\n    function _mint(address to, uint256 amount)\n        internal\n        override(ERC20Upgradeable, ERC20VotesUpgradeable)\n    {\n        super._mint(to, amount);\n    }\n\n    function _burn(address account, uint256 amount)\n        internal\n        override(ERC20Upgradeable, ERC20VotesUpgradeable)\n    {\n        super._burn(account, amount);\n    }\n}\n",
  "sourcePath": "/Users/cream/Consulting/braincargo/BrainCoin/contracts/BrainCoin.sol",
  "compiler": {
    "name": "solc",
    "version": "0.8.19+commit.7dd6d404.Emscripten.clang"
  },
  "schemaVersion": "3.4.13",
  "updatedAt": "2023-03-05T21:28:32.208Z",
  "networkType": "ethereum",
  "devdoc": {
    "custom:security-contact": "security@braincargo.com",
    "events": {
      "AdminChanged(address,address)": {
        "details": "Emitted when the admin account has changed."
      },
      "Approval(address,address,uint256)": {
        "details": "Emitted when the allowance of a `spender` for an `owner` is set by a call to {approve}. `value` is the new allowance."
      },
      "BeaconUpgraded(address)": {
        "details": "Emitted when the beacon is upgraded."
      },
      "DelegateChanged(address,address,address)": {
        "details": "Emitted when an account changes their delegate."
      },
      "DelegateVotesChanged(address,uint256,uint256)": {
        "details": "Emitted when a token transfer or delegate change results in changes to a delegate's number of votes."
      },
      "Initialized(uint8)": {
        "details": "Triggered when the contract has been initialized or reinitialized."
      },
      "Paused(address)": {
        "details": "Emitted when the pause is triggered by `account`."
      },
      "Snapshot(uint256)": {
        "details": "Emitted by {_snapshot} when a snapshot identified by `id` is created."
      },
      "Transfer(address,address,uint256)": {
        "details": "Emitted when `value` tokens are moved from one account (`from`) to another (`to`). Note that `value` may be zero."
      },
      "Unpaused(address)": {
        "details": "Emitted when the pause is lifted by `account`."
      },
      "Upgraded(address)": {
        "details": "Emitted when the implementation is upgraded."
      }
    },
    "kind": "dev",
    "methods": {
      "DOMAIN_SEPARATOR()": {
        "details": "See {IERC20Permit-DOMAIN_SEPARATOR}."
      },
      "allowance(address,address)": {
        "details": "See {IERC20-allowance}."
      },
      "approve(address,uint256)": {
        "details": "See {IERC20-approve}. NOTE: If `amount` is the maximum `uint256`, the allowance is not updated on `transferFrom`. This is semantically equivalent to an infinite approval. Requirements: - `spender` cannot be the zero address."
      },
      "balanceOf(address)": {
        "details": "See {IERC20-balanceOf}."
      },
      "balanceOfAt(address,uint256)": {
        "details": "Retrieves the balance of `account` at the time `snapshotId` was created."
      },
      "burn(uint256)": {
        "details": "Destroys `amount` tokens from the caller. See {ERC20-_burn}."
      },
      "burnFrom(address,uint256)": {
        "details": "Destroys `amount` tokens from `account`, deducting from the caller's allowance. See {ERC20-_burn} and {ERC20-allowance}. Requirements: - the caller must have allowance for ``accounts``'s tokens of at least `amount`."
      },
      "checkpoints(address,uint32)": {
        "details": "Get the `pos`-th checkpoint for `account`."
      },
      "constructor": {
        "custom:oz-upgrades-unsafe-allow": "constructor"
      },
      "decimals()": {
        "details": "Returns the number of decimals used to get its user representation. For example, if `decimals` equals `2`, a balance of `505` tokens should be displayed to a user as `5.05` (`505 / 10 ** 2`). Tokens usually opt for a value of 18, imitating the relationship between Ether and Wei. This is the value {ERC20} uses, unless this function is overridden; NOTE: This information is only used for _display_ purposes: it in no way affects any of the arithmetic of the contract, including {IERC20-balanceOf} and {IERC20-transfer}."
      },
      "decreaseAllowance(address,uint256)": {
        "details": "Atomically decreases the allowance granted to `spender` by the caller. This is an alternative to {approve} that can be used as a mitigation for problems described in {IERC20-approve}. Emits an {Approval} event indicating the updated allowance. Requirements: - `spender` cannot be the zero address. - `spender` must have allowance for the caller of at least `subtractedValue`."
      },
      "delegate(address)": {
        "details": "Delegate votes from the sender to `delegatee`."
      },
      "delegateBySig(address,uint256,uint256,uint8,bytes32,bytes32)": {
        "details": "Delegates votes from signer to `delegatee`"
      },
      "delegates(address)": {
        "details": "Get the address `account` is currently delegating to."
      },
      "getPastTotalSupply(uint256)": {
        "details": "Retrieve the `totalSupply` at the end of `blockNumber`. Note, this value is the sum of all balances. It is but NOT the sum of all the delegated votes! Requirements: - `blockNumber` must have been already mined"
      },
      "getPastVotes(address,uint256)": {
        "details": "Retrieve the number of votes for `account` at the end of `blockNumber`. Requirements: - `blockNumber` must have been already mined"
      },
      "getVotes(address)": {
        "details": "Gets the current votes balance for `account`"
      },
      "increaseAllowance(address,uint256)": {
        "details": "Atomically increases the allowance granted to `spender` by the caller. This is an alternative to {approve} that can be used as a mitigation for problems described in {IERC20-approve}. Emits an {Approval} event indicating the updated allowance. Requirements: - `spender` cannot be the zero address."
      },
      "name()": {
        "details": "Returns the name of the token."
      },
      "nonces(address)": {
        "details": "See {IERC20Permit-nonces}."
      },
      "numCheckpoints(address)": {
        "details": "Get number of checkpoints for `account`."
      },
      "owner()": {
        "details": "Returns the address of the current owner."
      },
      "paused()": {
        "details": "Returns true if the contract is paused, and false otherwise."
      },
      "permit(address,address,uint256,uint256,uint8,bytes32,bytes32)": {
        "details": "See {IERC20Permit-permit}."
      },
      "proxiableUUID()": {
        "details": "Implementation of the ERC1822 {proxiableUUID} function. This returns the storage slot used by the implementation. It is used to validate the implementation's compatibility when performing an upgrade. IMPORTANT: A proxy pointing at a proxiable contract should not be considered proxiable itself, because this risks bricking a proxy that upgrades to it, by delegating to itself until out of gas. Thus it is critical that this function revert if invoked through a proxy. This is guaranteed by the `notDelegated` modifier."
      },
      "renounceOwnership()": {
        "details": "Leaves the contract without owner. It will not be possible to call `onlyOwner` functions anymore. Can only be called by the current owner. NOTE: Renouncing ownership will leave the contract without an owner, thereby removing any functionality that is only available to the owner."
      },
      "symbol()": {
        "details": "Returns the symbol of the token, usually a shorter version of the name."
      },
      "totalSupply()": {
        "details": "See {IERC20-totalSupply}."
      },
      "totalSupplyAt(uint256)": {
        "details": "Retrieves the total supply at the time `snapshotId` was created."
      },
      "transfer(address,uint256)": {
        "details": "See {IERC20-transfer}. Requirements: - `to` cannot be the zero address. - the caller must have a balance of at least `amount`."
      },
      "transferFrom(address,address,uint256)": {
        "details": "See {IERC20-transferFrom}. Emits an {Approval} event indicating the updated allowance. This is not required by the EIP. See the note at the beginning of {ERC20}. NOTE: Does not update the allowance if the current allowance is the maximum `uint256`. Requirements: - `from` and `to` cannot be the zero address. - `from` must have a balance of at least `amount`. - the caller must have allowance for ``from``'s tokens of at least `amount`."
      },
      "transferOwnership(address)": {
        "details": "Transfers ownership of the contract to a new account (`newOwner`). Can only be called by the current owner."
      },
      "upgradeTo(address)": {
        "details": "Upgrade the implementation of the proxy to `newImplementation`. Calls {_authorizeUpgrade}. Emits an {Upgraded} event."
      },
      "upgradeToAndCall(address,bytes)": {
        "details": "Upgrade the implementation of the proxy to `newImplementation`, and subsequently execute the function call encoded in `data`. Calls {_authorizeUpgrade}. Emits an {Upgraded} event."
      }
    },
    "version": 1
  },
  "userdoc": {
    "kind": "user",
    "methods": {},
    "version": 1
  }
}